S00C00004E4C33422E7372656309
S31500020000C06F002001040200410402004104020004
S315000200104104020041040200410402000000000003
S315000200200000000000000000000000003D4D03003B
S315000200304104020000000000C94D0300294E0300DE
S3150002004069A5030071A5030079A5030081A5030034
S3150002005089A5030091A5030099A50300A1A50300A4
S31500020060A9A50300B1A50300B9A50300C1A5030014
S31500020070C9A50300D1A50300D9A50300E1A5030084
S31500020080E9A5030041040200410402004104020002
S31500020090410402004104020041040200410402003C
S315000200A041040200410402006D84030075840300CA
S315000200B07D8403004104020041040200410402005F
S315000200C0410402004104020041040200410402000C
S315000200D041040200410402004104020041040200FC
S315000200E041040200410402004104020041040200EC
S315000200F04104020041040200656B03006D6B0300BC
S3150002010041040200410402004104020041040200CB
S3150002011041040200410402004104020041040200BB
S3150002012041040200410402004104020041040200AB
S31500020130410402004104020041040200410402009B
S31500020140410402004104020041040200410402008B
S31500020150410402004104020041040200410402007B
S31500020160410402004104020041040200410402006B
S315000201704104020041040200E9920300F1920300E5
S31500020180F99203000193030009930300410402005C
S315000201904104020011930300199303004104020073
S315000201A021930300410402004104020041040200BB
S315000201B0299303003193030041040200399303009B
S315000201C0410402004104020041040200698A03005C
S315000201D0F18A0300798B0300018C030041040200BB
S315000201E041040200898C0300118D0300998D0300DE
S315000201F0218E03004104020041040200A98E03007D
S31500020200318F0300B98F03004190030041040200BD
S3150002021041040200C990030051910300D9910300E1
S3150002022061920300410402004104020041040200FB
S31500020230410402004104020041040200410402009A
S31500020240410402004104020041040200410402008A
S31500020250410402004104020041040200410402007A
S31500020260410402004104020041040200410402006A
S31500020270410402004104020041040200410402005A
S31500020280410402004104020041040200410402004A
S31500020290410402004104020041040200410402003A
S315000202A0410402004104020041040200410402002A
S315000202B0410402004104020041040200410402001A
S315000202C0410402004104020041040200410402000A
S315000202D041040200410402004104020041040200FA
S315000202E041040200410402004104020041040200EA
S315000202F041040200410402004104020041040200DA
S3150002030041040200410402004104020041040200C9
S3150002031041040200410402004104020041040200B9
S3150002032041040200410402004104020041040200A9
S315000203304104020041040200410402004104020099
S315000203404104020041040200410402004104020089
S315000203504104020041040200410402004104020079
S315000203604104020041040200410402004104020069
S315000203704104020041040200410402004104020059
S315000203804104020041040200410402004104020049
S315000203904104020041040200410402004104020039
S315000203A04104020041040200410402004104020029
S315000203B04104020041040200410402004104020019
S315000203C04104020041040200410402004104020009
S315000203D041040200410402004104020041040200F9
S315000203E041040200410402004104020041040200E9
S315000203F0410402004104020041040200FFFFFFFF24
S3150002040072B60B490A4A0A4B094C094D084E084F67
S31500020410B846B946BA46BB46BC460648854606486D
S3150002042080470648804762B602F0D6F9FEE700002A
S3150002043000000000C06F002051CB0300CDCA0300AC
S31500020440FFF7FEBF81F0004102E000BF83F00043E8
S3150002045030B54FEA41044FEA430594EA050F08BF57
S3150002046090EA020F1FBF54EA000C55EA020C7FEA1B
S31500020470645C7FEA655C00F0E2804FEA5454D4EB98
S315000204805555B8BF6D420CDD2C4480EA020281EA62
S31500020490030382EA000083EA010180EA020281EA9A
S315000204A00303362D88BF30BD11F0004F4FEA0131EC
S315000204B04FF4801C4CEA113102D0404261EB4101FB
S315000204C013F0004F4FEA03334CEA133302D0524281
S315000204D063EB430394EA050F00F0A780A4F101043D
S315000204E0D5F1200E0DDB02FA0EFC22FA05F2801877
S315000204F041F1000103FA0EF2801843FA05F359415D
S315000205000EE0A5F120050EF1200E012A03FA0EFCDB
S3150002051028BF4CF0020C43FA05F3C01851EBE37105
S3150002052001F0004507D54FF0000EDCF1000C7EEB22
S3150002053000006EEB0101B1F5801F1BD3B1F5001F60
S315000205400CD349085FEA30004FEA3C0C04F101047F
S315000205504FEA445212F5800F80F09A80BCF1004FA8
S3150002056008BF5FEA500C50F1000041EB045141EA2A
S31500020570050130BD5FEA4C0C404141EB010111F42B
S31500020580801FA4F10104E9D191F0000F04BF0146D6
S315000205900020B1FA81F308BF2033A3F10B03B3F1B4
S315000205A020020CDA0C3208DD02F1140CC2F10C0244
S315000205B001FA0CF021FA02F10CE002F11402D8BFA2
S315000205C0C2F1200C01FA02F120FA0CFCDCBF41EA6E
S315000205D00C019040E41AA2BF01EB0451294330BD3D
S315000205E06FEA04041F3C1CDA0C340EDC04F114041A
S315000205F0C4F1200220FA04F001FA02F340EA0300F1
S3150002060021FA04F345EA030130BDC4F10C04C4F136
S31500020610200220FA02F001FA04F340EA0300294616
S3150002062030BD21FA04F0294630BD94F0000F83F460
S31500020630801306BF81F480110134013D4EE77FEA43
S31500020640645C18BF7FEA655C29D094EA050F08BF8F
S3150002065090EA020F05D054EA000C04BF1946104670
S3150002066030BD91EA030F1EBF0021002030BD5FEAB4
S31500020670545C05D14000494128BF41F0004130BDDC
S3150002068014F580043CBF01F5801130BD01F0004530
S3150002069045F0FE4141F470014FF0000030BD7FEAA3
S315000206A0645C1ABF194610467FEA655C1CBF0B469E
S315000206B0024650EA013406BF52EA033591EA030FB5
S315000206C041F4002130BD00BF90F0000F04BF0021AD
S315000206D0704730B54FF4806404F132044FF00005E0
S315000206E04FF0000150E700BF90F0000F04BF002159
S315000206F0704730B54FF4806404F1320410F00045BF
S3150002070048BF40424FF000013EE700BF42004FEAB9
S31500020710E2014FEA31014FEA02701FBF12F07F4336
S3150002072093F07F4F81F06051704792F0000F14BF33
S3150002073093F07F4F704730B54FF4607401F0004577
S3150002074021F0004120E700BF50EA010208BF7047CE
S3150002075030B54FF000050AE050EA010208BF7047C3
S3150002076030B511F0004502D5404261EB41014FF42C
S31500020770806404F132045FEA915C3FF4DCAE4FF030
S3150002078003025FEADC0C18BF03325FEADC0C18BF17
S31500020790033202EBDC02C2F1200300FA03FC20FA68
S315000207A002F001FA03FE40EA0E0021FA02F11444B5
S315000207B0C1E600BF70B54FF0FF0C4CF4E06C1CEACA
S315000207C011541DBF1CEA135594EA0C0F95EA0C0F3F
S315000207D000F0DEF82C4481EA030621EA4C5123EAB2
S315000207E04C5350EA013518BF52EA033541F48011E1
S315000207F043F4801338D0A0FB02CE4FF00005E1FB94
S3150002080002E506F00042E0FB03E54FF00006E1FBDD
S3150002081003569CF0000F18BF4EF0010EA4F1FF0420
S31500020820B6F5007F64F5407404D25FEA4E0E6D4160
S3150002083046EB060642EAC62141EA55514FEAC52071
S3150002084040EA5E504FEACE2EB4F1FD0C88BFBCF5ED
S31500020850E06F1ED8BEF1004F08BF5FEA500E50F19E
S31500020860000041EB045170BD06F0004646EA010164
S3150002087040EA020081EA0301B4EB5C04C2BFD4EB96
S315000208800C0541EA045170BD41F480114FF0000E8F
S31500020890013C00F3AB8014F1360FDEBF002001F0FD
S315000208A0004170BDC4F10004203C35DA0C341BDC77
S315000208B004F11404C4F1200500FA05F320FA04F049
S315000208C001FA05F240EA020001F0004221F000417D
S315000208D010EBD37021FA04F642EB06015EEA430EF0
S315000208E008BF20EAD37070BDC4F10C04C4F1200520
S315000208F000FA04F320FA05F001FA04F240EA0200D3
S3150002090001F0004110EBD37041F100015EEA430EA3
S3150002091008BF20EAD37070BDC4F1200500FA05F2C3
S315000209204EEA020E20FA04F301FA05F243EA020342
S3150002093021FA04F001F0004121FA04F220EA020051
S3150002094000EBD3705EEA430E08BF20EAD37070BD97
S3150002095094F0000F0FD101F00046400041EB010177
S3150002096011F4801F08BF013CF7D041EA060195F059
S31500020970000F18BF704703F00046520043EB030313
S3150002098013F4801F08BF013DF7D043EA0603704700
S3150002099094EA0C0F0CEA135518BF95EA0C0F0CD00B
S315000209A050EA410618BF52EA4306D1D181EA030151
S315000209B001F000414FF0000070BD50EA410606BF4B
S315000209C01046194652EA430619D094EA0C0F02D190
S315000209D050EA013613D195EA0C0F05D152EA0336D5
S315000209E01CBF104619460AD181EA030101F00041F3
S315000209F041F0FE4141F470014FF0000070BD41F03C
S31500020A00FE4141F4780170BD70B54FF0FF0C4CF415
S31500020A10E06C1CEA11541DBF1CEA135594EA0C0F34
S31500020A2095EA0C0F00F0A7F8A4EB050481EA030E81
S31500020A3052EA03354FEA013100F088804FEA033368
S31500020A404FF0805545EA131343EA12634FEA022236
S31500020A5045EA111545EA10654FEA00260EF00041F7
S31500020A609D4208BF964244F1FD0404F5407402D249
S31500020A705B084FEA3202B61A65EB03055B084FEADA
S31500020A8032024FF480104FF4002CB6EB020E75EBD7
S31500020A90030E22BFB61A754640EA0C005B084FEAFF
S31500020AA03202B6EB020E75EB030E22BFB61A75467C
S31500020AB040EA5C005B084FEA3202B6EB020E75EBC7
S31500020AC0030E22BFB61A754640EA9C005B084FEA3F
S31500020AD03202B6EB020E75EB030E22BFB61A75464C
S31500020AE040EADC0055EA060E18D04FEA051545EA3B
S31500020AF016754FEA06164FEAC30343EA52734FEAE4
S31500020B00C2025FEA1C1CC0D111F4801F0BD141EA5C
S31500020B1000014FF000004FF0004CB6E711F4801FC1
S31500020B2004BF01430020B4F1FD0C88BFBCF5E06FA1
S31500020B303FF6AFAEB5EB030C04BFB6EB020C5FEAB1
S31500020B40500C50F1000041EB045170BD0EF0004E06
S31500020B504EEA113114EB5C04C2BFD4EB0C0541EA38
S31500020B60045170BD41F480114FF0000E013C90E635
S31500020B7045EA060E8DE60CEA135594EA0C0F08BFF9
S31500020B8095EA0C0F3FF43BAF94EA0C0F0AD150EAF8
S31500020B9001347FF434AF95EA0C0F7FF425AF10468B
S31500020BA019462CE795EA0C0F06D152EA03353FF4B3
S31500020BB0FDAE1046194622E750EA410618BF52EA30
S31500020BC043067FF4C5AE50EA41047FF40DAF52EA04
S31500020BD043057FF4EBAE12E74FF0FF3C06E000BFA1
S31500020BE04FF0010C02E000BF4FF0010C4DF804CDAE
S31500020BF04FEA410C7FEA6C5C4FEA430C18BF7FEA6E
S31500020C006C5C1BD001B050EA410C0CBF52EA430C9B
S31500020C1091EA030F02BF90EA020F0020704710F11B
S31500020C20000F91EA030F58BF994208BF90422CBFAA
S31500020C30D8176FEAE37040F0010070474FEA410CA3
S31500020C407FEA6C5C02D150EA013C07D14FEA430CC1
S31500020C507FEA6C5CD6D152EA033CD3D05DF8040B32
S31500020C60704700BF8446104662468C461946634664
S31500020C7000E000BF01B5FFF7B7FF002848BF10F13B
S31500020C80000F01BD4DF808EDFFF7F4FF0CBF012080
S31500020C9000205DF808FB00BF4DF808EDFFF7EAFFFC
S31500020CA034BF012000205DF808FB00BF4DF808EDB7
S31500020CB0FFF7E0FF94BF012000205DF808FB00BFAC
S31500020CC04DF808EDFFF7CEFF94BF012000205DF836
S31500020CD008FB00BF4DF808EDFFF7C4FF34BF012043
S31500020CE000205DF808FB00BF4FEA410212F5001230
S31500020CF015D211D56FF47873B3EB625212D94FEA5B
S31500020D00C12343F0004343EA505311F0004F23FA44
S31500020D1002F018BF404270474FF00000704750EA99
S31500020D20013005D111F0004008BF6FF00040704756
S31500020D304FF00000704700BF4A0011D212F50012B0
S31500020D4011D20DD56FF47873B3EB62520ED44FEA1B
S31500020D50C12343F0004343EA505323FA02F070479B
S31500020D604FF00000704750EA013002D14FF0FF30D9
S31500020D7070474FF0000070474FEA4102B2F1E0437C
S31500020D8024BFB3F5001CDCF1FE5C0DD901F0004C6A
S31500020D904FEAC0024CEA5070B2F1004F40EB8300BA
S31500020DA008BF20F00100704711F0804F21D113F1E6
S31500020DB03872BCBF01F00040704741F480114FEA1F
S31500020DC05252C2F11802C2F1200C10FA0CF320FAA8
S31500020DD002F018BF40F001004FEAC1234FEAD323C5
S31500020DE003FA0CFC40EA0C0023FA02F34FEA43032F
S31500020DF0CCE77FEA625307D150EA01331EBF4FF0B8
S31500020E00FE4040F44000704701F0004040F0FE40D2
S31500020E1040F40000704700BF53B94AB9002908BF21
S31500020E2000281CBF4FF0FF314FF0FF3000F03CB8F6
S31500020E3082B0EC462DE9005000F01EF8DDF804E021
S31500020E4002B00CBC704700BF2DE9F041069C154666
S31500020E5006460F46984600F029F805FB01F300FB0B
S31500020E600838A5FB0023B21A434467EB0303C4E91F
S31500020E700023BDE8F08100BF2DE9F041069C9046B3
S31500020E8006460F461D4600F05FF900FB05F5A0FB7E
S31500020E90082308FB0155B21A2B4467EB0303C4E986
S31500020EA00023BDE8F08100BF704700BF00292DE98D
S31500020EB0F043C0F2A6800026002BC0F29C80884632
S31500020EC094469E46154604460F46002B3DD18A425D
S31500020ED059D9B2FA82F33BB1C3F120029F4020FAFC
S31500020EE002F29D4017439C40290C220CB7FBF1FEEF
S31500020EF0A8B201FB1E7742EA074700FB0EF3BB428C
S31500020F000AD97F190EF1FF3280F00581BB4240F209
S31500020F100281AEF1020E2F44FF1AA4B2B7FBF1F31F
S31500020F2001FB137744EA074700FB03F0B84208D9EE
S31500020F307F1903F1FF3280F0F080B84240F2ED8073
S31500020F40023B43EA0E43002203E08B420FD9002202
S31500020F501346341C18BF012460424FF0000565EBAE
S31500020F6045015840514000196941BDE8F083B3FA82
S31500020F7083F2002A40F086808B4202D3844500F237
S31500020F80DB800123E5E712B90123B3FBF2F5B5FADB
S31500020F9085F000283BD1781B4FEA154E1FFA85FCD7
S31500020FA00122B0FBFEF8210C0EFB180741EA0747A7
S31500020FB00CFB08F3BB4207D97F1908F1FF3102D2B5
S31500020FC0BB4200F2BD808846FF1AA4B2B7FBFEF30D
S31500020FD00EFB137744EA07470CFB03FCBC4507D913
S31500020FE07F1903F1FF3102D2BC4500F2A7800B46FE
S31500020FF043EA0843ADE752426FEA060663EB430350
S315000210005DE7404261EB41014FF0FF3654E7C0F124
S31500021010200224FA02F107FA00F385404FEA154E40
S31500021020D7401943B7FBFEF20B0C0EFB12771FFAE1
S3150002103085FC43EA07430CFB02F79F4204FA00F4DD
S3150002104007D95B1902F1FF3074D29F4272D9023A74
S315000210502B44DF1B89B2B7FBFEF80EFB187341EA7D
S3150002106003430CFB08F79F4208D95B1908F1FF31CD
S315000210705CD29F425AD9A8F102082B44D81B48EAEF
S3150002108002428EE7C2F120032CFA03F10EFA02FEA7
S3150002109020FA03F741EA0E0E08FA02F028FA03F1E3
S315000210A04FEA1E453843B1FBF5F8030C05FB181150
S315000210B01FFA8EF743EA014107FB08F38B420CFA4B
S315000210C002FC09D911EB0E0108F1FF3930D28B422D
S315000210D02ED9A8F102087144C91A80B2B1FBF5F300
S315000210E005FB131140EA014107FB03F78F4208D9BA
S315000210F011EB0E0103F1FF3016D28F4214D9023BD7
S31500021100714443EA0843C91BA3FB0C89494509D329
S3150002111005D000221DE79646FEE6134611E79440E7
S315000211204445F6D2013BF4E70346EAE78846A5E7DB
S31500021130C846D1E702468CE713460AE7023B57E761
S31500021140A8F102082F443FE72DE9F041002B44D1D4
S315000211508A42154604464FD9B2FA82F70E464FB175
S31500021160C7F12003B94020FA03F602FA07F50E4347
S3150002117000FA07F44FEA154E230CB6FBFEF0AFB2A7
S315000211800EFB106143EA014307FB00F1994209D9BC
S315000211905B1900F1FF3280F0EC80994240F2E9805F
S315000211A002382B445A1AA4B2B2FBFEF30EFB1322E8
S315000211B044EA024207FB03F7974208D9521903F1A0
S315000211C0FF3180F0D880974240F2D580023B43EA55
S315000211D0004000263146BDE8F0818B4247D8B3FA7B
S315000211E083F6002E48D18B4202D3824200F2CD8092
S315000211F001203146BDE8F08112B90125B5FBF2F5B1
S31500021200B5FA85F8B8F1000F77D14A1B4FEA154EA9
S31500021210AFB20126B2FBFEF0230C0EFB102143EA0D
S31500021220014107FB00F38B4207D9491900F1FF324E
S3150002123002D28B4200F2BA801046C91AA4B2B1FB9E
S31500021240FEF30EFB131144EA014407FB03F7A74220
S3150002125008D9641903F1FF3280F08F80A74240F269
S315000212608C80023B43EA00403146BDE8F08100260D
S3150002127030463146BDE8F081C6F1200422FA04F573
S31500021280B3402B4320FA04FC01FA06F721FA04F5CF
S315000212904FEA134E4CEA0707B5FBFEF8390C0EFB74
S315000212A018551FFA83FC41EA05450CFB08F1A942D1
S315000212B002FA06F204D9ED1808F1FF3467D3A04604
S315000212C06D1ABFB2B5FBFEF40EFB145547EA054193
S315000212D00CFB04FC8C4504D9C91804F1FF355CD318
S315000212E02C4644EA0844CCEB0101A4FB02239942B2
S315000212F048D344D0204600266CE7C8F1200401FA00
S3150002130008F305FA08F520FA04F7E1404FEA154E0C
S315000213101F43B1FBFEF63A0C0EFB16111FFA85FCB3
S3150002132042EA01430CFB06F29A4200FA08F407D994
S315000213305B1906F1FF3137D29A4235D9023E2B4468
S315000213409B1ABFB2B3FBFEF00EFB103347EA034310
S315000213500CFB00F1994207D95B1900F1FF3221D249
S3150002136099421FD902382B445A1A40EA0646674662
S3150002137050E7104616E70B4629E7134672E7B040D8
S315000213809042B7D2601E002624E7304622E7A942E1
S3150002139095D9A8F102081D4492E78C45A0D9023CD2
S315000213A019449EE71046DFE70E46C9E7023829448C
S315000213B043E700BF10B50446042014F0F7FF20608F
S315000213C010BD00BF14F056B914F00CBA10B50021C6
S315000213D004460322012014F035FE206010BD00BF32
S315000213E000B54FF0E02383B0D3F8043D0068C3F3A1
S315000213F008034BB102AA002142F8041D15F0F6F9C2
S31500021400002003B05DF804FB0A46194615F0ACF855
S31500021410002003B05DF804FB00B54FF0E02383B073
S31500021420D3F8041D0068C1F3080141B102A90023E3
S3150002143041F8043D15F044F803B05DF804FB0A4692
S315000214400B4614F071FE03B05DF804FBF0B50F46CF
S3150002145087B0B3B119460C9BC2F10402002505AE52
S3150002146000920196C3F38F0202953B46039514F050
S31500021470A3F818B94FF0FF3007B0F0BD059807B0D2
S31500021480F0BD044D044B2E681979741C31442C604E
S315000214901971DFE7808FFF1F0084FF1FF8B5036B0A
S315000214A000F130059D420AD093E8060011601968E2
S315000214B04A605B601B6000221A611846F8BD04464A
S315000214C0542013F06DFB034600286DD01B60A26A00
S315000214D0606A9A60A26A5B6003F1080104F1280659
S315000214E001308E42DE605160A16260625ED00A46C1
S315000214F0002AFCD01268964201D0002AF8D1202890
S31500021500D9DD0B46002BFCD01B689E4201D0002B76
S31500021510F8D1236B9D4203D013B11B689D42FBD1C8
S31500021520A06B04F13807874204D0034613B11B6847
S315000215309F42FBD1216C04F140068E4204D00B4639
S3150002154013B11B689E42FBD1A26C04F14805954279
S3150002155004D0134613B11B689D42FBD1236D503450
S315000215609C4207D09E46BEF1000F03D0DEF800E093
S315000215707445F8D1874203D010B100688742FBD187
S315000215808E4203D011B109688E42FBD1954203D037
S3150002159012B112689542FBD19C420AD02BB11B684C
S315000215A09C4208BF0023F9E7FEE7FEE7202882DD1A
S315000215B0AFE7FAE743898B421CD05B1A1B0419D5A5
S315000215C003890122994230B442612DD05B1A9BB243
S315000215D045F2545293420ED8028B8A420FD000240F
S315000215E02246448325461C4C018354F822209A4203
S315000215F00CDD30BC7047028B8A421BB2EFD1458BA1
S31500021600154C2A4654F822209A42F2DC036C00F169
S3150002161040049C42EDD0002BEBD01A8B8A4205D0B7
S315000216201B68A342F7D1E4E70023D5E793E8060057
S3150002163011601C68014662601B6051F8382F1A60FF
S315000216406A1C846B596092B2052A88BF2A46636077
S3150002165083634283CDE700BFD4E003002DE9F04166
S315000216600569002D044650D04EDB022D4CDC0246A5
S3150002167052F8383F934200F0C88093E806001160A2
S3150002168019681D464A605B601B6003602B697BB963
S315000216906B7D22892A83013BDBB20122032B2A615D
S315000216A006D89A4012F00D0F02D023890133238106
S315000216B0A389EA8A013B0021A9836B830A324FF68A
S315000216C0FF7005F1140100F0C3FEA883206B04F13C
S315000216D03006864222D090E80C001A6002685360F7
S315000216E040600060002101614022606014301BF0FE
S315000216F076FA94E80600D4F88C04143114324023A6
S31500021700BDE8F04102F0C6BFFEE7FFF7C7FEC323FE
S31500021710206045750375C5822568B7E7542013F026
S315000217203FFA002870D00060A36A8360626AA16AE9
S31500021730406000F1080304F1280501329D42C560AC
S315000217404B60A362626212D019460029FCD0096876
S315000217508D4201D00029F8D1202AC3DD1A46002A7B
S31500021760FCD01268954204D0002AF8D101E0202A62
S31500021770B8DD236B9E4203D013B11B689E42FBD198
S31500021780A06B04F1380E864504D0034613B11B68DC
S315000217909E45FBD1216C04F140078F4204D00B46D3
S315000217A013B11B689F42FBD1A26C04F14806964214
S315000217B004D0134613B11B689E42FBD1256D5034EB
S315000217C0A5422B4608D013B11B689C42FBD1864525
S315000217D02B4607D030B100688645FBD18F4207D031
S315000217E031B109688F42FBD1964203D012B1126819
S315000217F09642FBD1AC4223D02BB11B689C4208BF58
S315000218000023002BF9D11BE0FEE700230360FFF75C
S3150002181045FEC32523460221102220600575417527
S31500021820C28253F8146F5D689968DB68C0F82A3083
S31500021830C0F81E60C0F82250C0F82610256825E7B9
S31500021840FEE700BFF8B505460C4617F0D9F8FDB914
S315000218502268537D013BDBB2032B66D9236B1360EF
S31500021860236B04F130018A42516015465A602263A5
S3150002187000F0A2800122002305E01B688B427FD084
S31500021880002B7DD00132501E002BF6D12B46F9E7F4
S3150002189021684B7D013BDBB2032B31D9236B0B60F5
S315000218A0236B04F1300048600A46596004F1380699
S315000218B0216363681A60226B5860536023630023B6
S315000218C0236063602046FFF7C9FE04F59160FFF7C7
S315000218D0A3FD17F095F825681DB16D7D023D18BF71
S315000218E00125A36BB34218BF012517F07DF82946DF
S315000218F0D4F88C0402F0D4FE17F076F80020F8BD76
S31500021900012202FA03F313F00D0FC7D00B69002B65
S31500021910C4D0A36B0B60A36B226B04F138064E6036
S3150002192004F130005960A163C3E7012101FA03F310
S3150002193013F00D0F92D01369002B8FD0D4F840E02C
S31500021940168B04F14007BE4528D0284645F2545569
S31500021950A0B14068B84221D000B3018B731A8E42FF
S315000219609BB23FF47BAFAB4288BF1BB2002B2CDC91
S315000219703FF474AF45F254550028EAD1606CEBE7A8
S31500021980022819D96368E26C5A60E26C04F14801D4
S31500021990196004F138061360E36490E7C2F800E0C8
S315000219A0236C256B576004F130015A6022648D4224
S315000219B002D0002D7FF45EAF63681D60226B596012
S315000219C004F138065360236379E7036813600368FA
S315000219D050605A600260256B04F13001E7E700BFF0
S315000219E02DE9F04F87B000F14803049300F1280374
S315000219F0039300F10C03009300F15803019300F5E1
S31500021A009163044600F1400800F1380700F1300600
S31500021A1000F1140A00F15009029316F0F1FFD4F80E
S31500021A206C040025B34600F04DFD002858D0A16B8A
S31500021A308F420FD071B10122002304E01B689F423E
S31500021A4006D02BB10132501E002BF7D10B46F9E717
S31500021A5002287DD8216C88450FD071B1012200235E
S31500021A6004E01B68434506D02BB10132501E002B01
S31500021A70F7D10B46F9E7062838D8236B5B4535D0F4
S31500021A802046FFF70BFD0546D4F86C0400F028FD4E
S31500021A90002842D0D4F86C0405F11E01362200F06B
S31500021AA021FDD4F86C340646002E35D0184600F0D7
S31500021AB017FDB6B2002814BF03220422362E2AD8F6
S31500021AC0C3236A752B75E36B6B60E36BD4F86C0406
S31500021AD0EE822F601D60E56300F0F4FC0028A6D1BB
S31500021AE0D4F8700400F0EEFC0028A0D15E4685BB57
S31500021AF0A36B9F422DD1236C43452AD093E806005F
S31500021B00116019684A605B60E26B5A60E26B1F60A3
S31500021B101360E3631DE0FEE7FEE705F11E0C614676
S31500021B20D4F87004CDF814C0362200F0DBFCD4F8E9
S31500021B307034DDF814C006460028B7D16146D4F8E1
S31500021B406C04362200F0CEFCD4F86C340646ABE7C1
S31500021B505E4616F049FF16F053FFA56C049B9D42A4
S31500021B6013D095E80C001A602A6853602B7D6D60CD
S31500021B70C32B2D6023D0236B2B60236B6E605D60BD
S31500021B802563049BA56C9D42EBD116F02DFF16F042
S31500021B9037FF25681DB16D7D023D18BF0125A36B78
S31500021BA0BB4218BF012516F01FFF2946D4F88C0444
S31500021BB002F076FD02980521FFF712FC2DE76B7DF8
S31500021BC0052BD8D8EA8A362AD5D8012B05F1140175
S31500021BD021D92389688B8342CDD0C31A9BB245F2A1
S31500021BE0545E7345C7D91BB2002BC4DA0B33C2DB72
S31500021BF06389984202D0C01A0304BCD4A0892B8BF5
S31500021C00984208D01B1A9BB245F25450834200F206
S31500021C1085800B2BAFD80020B5F81CB0A8830A32FA
S31500021C2047F6FF7000F014FC8345A5F81CB0A2D15C
S31500021C306B7D002B7CD12369012B9CD0D4F87834A0
S31500021C400122226113B1D4F88004984700234FF68B
S31500021C50FF7225686068A16ADDF80CE0C4F8683492
S31500021C60A381238163616383E36163846281228347
S31500021C702284BB468E451FD0002B57D01B68734566
S31500021C801AD0CBB1A3F10802AA42F3D08242F1D014
S31500021C9053F8041C53F8087C0F6053F8087C7960EB
S31500021CA01260216B1160A16AD4F830C056608E456D
S31500021CB0CCF804202263DFD15F460DB100232B61ED
S31500021CC008B100230361D4F86C0400F0F5FBD4F8E4
S31500021CD0700400F0F1FB0023C4F868342046FFF7D5
S31500021CE0DDFBC3210122102301754275C382DAF896
S31500021CF000E0DAF80450DAF80810DAF80C20C0F836
S31500021D002A20C0F81EE0C0F82250C0F82610A36BA5
S31500021D100360A36B47605860A0631EE71BB20B2BE0
S31500021D203FF729AF0133BFF676AF24E70B46A8E7A4
S31500021D30022B00F0CF81052B00F04C816A8B638960
S31500021D409A4215D0D31A9BB245F254518B4288BFA0
S31500021D501BB2002B0CDD238B62819A4202D0D31A6E
S31500021D60180405D400234FF6FF7163616383218350
S31500021D70236C984516D0ABB1198B8A42A2EB0100AF
S31500021D8001D001040ED493E803000860186841608C
S31500021D901B60216B1960216B5E604B602363236CB1
S31500021DA04345E8D1206D2A8B814557D0002345F261
S31500021DB0545C002B4FD05B6899454FD0002B4DD019
S31500021DC0B3F818E0CEEB0201724589B206D061453E
S31500021DD088BF09B2002900F36F81E8D1236B2B601B
S31500021DE0236B6E605D60236D25634B4540F06E810B
S31500021DF0A189608C914276D0531A9BB245F2545215
S31500021E00934200D91BB2AB4A52F820209A423FF7BE
S31500021E10A4AE6369002B7FF4A0AE2046FFF73EFB1B
S31500021E20C32303750223C3820522009B42751B88C6
S31500021E30C383618CA36B03604A1CA56B476093B294
S31500021E40052B88BF0B460122A1896860A0636384C3
S31500021E502184E26181E6636D002BB1D12860236D96
S31500021E60C5F804904D455D602B462565C0D0A18915
S31500021E709B46BBF81830994208D0CB1A9BB245F262
S31500021E805452934288BF1BB2002B2ED19BF81530B9
S31500021E90032B00F08380042B50D0012B43D0DBF8B8
S31500021EA00420DBF800300131002089B24FF6FF7EB4
S31500021EB0A181E0616084A4F820E01360DBF80030C1
S31500021EC05A60CBF800B0236BCBF80030236D226B3F
S31500021ED0CBF804609945C2F804B0C4F830B020D0FB
S31500021EE0CBB19B46C5E700238DE717DB9BE80C00C9
S31500021EF01A60DBF800002A8B4360CBF800B0206B37
S31500021F00CBF80000256B608CCBF80460C5F804B0F2
S31500021F10C4F830B06EE72A8B18466BE72A8B608CC2
S31500021F2068E72A8B66E7D4F87C3402222261002B0A
S31500021F30B5D0D4F880049847A189B0E7D4F86834BC
S31500021F40BBF81620EBB16AB103F1580020440BF13D
S31500021F501E011AF039FEBBF81620D4F86834134471
S31500021F60C4F86834D4F874C4BCF1000F04D01A461D
S31500021F70D4F880040199E0470023C4F86834A189A3
S31500021F808DE7002A8BD0D4F87434002B87D00BF15E
S31500021F901E01D4F880049847A18980E7BBF8162071
S31500021FA0D4F86834D018B0F5826F12D8002A3FF4FC
S31500021FB076AF03F158000BF11E0120441AF004FE1D
S31500021FC0BBF81630D4F86824A1891344C4F86834DF
S31500021FD065E7FEE72046E98BFFF7ECFA6A8B638931
S31500021FE09A4215D0D31A9BB245F254518B4288BFFE
S31500021FF01BB2002B0CDD238B62819A4202D0D31ACC
S31500022000180405D400234FF6FF71636163832183AD
S31500022010236C434516D0ABB1198B8A42A2EB010061
S3150002202001D001040ED493E80300086018684160E9
S315000220301B60216B1960216B5E604B602363236C0E
S315000220404345E8D12B8BA289934231D09B1A9BB28E
S3150002205045F25452934200D91BB2628C154951F88B
S3150002206022209A423FF787AD6369002B7FF483AD46
S315000220702046FFF713FAC32305220375427502238E
S31500022080C382009B1B88C383B4F822E0A36B036060
S31500022090A16B47600EF1010293B24860052B88BF1F
S315000220A07346A189A063012263842184E26162E509
S315000220B00023D2E7D4E003001968296019686B602F
S315000220C04D601D60236D4B453FF492AE002B7FF4AD
S315000220D0CEAE8DE6D5F826301BB12046698DFFF7C8
S315000220E069FA6A8B63899A4222D0D31A9BB245F265
S315000220F054518B4288BF1BB2002B19DD238B6281A0
S315000221009A4202D0D31A180412D400234FF6FF7152
S315000221106361638321830BE093E803000860186818
S3150002212041601B60216B1960216B5E604B6023630B
S31500022130236C434586D0002B84D0198B8A42A2EBAE
S315000221400100E9D001043FF57DAFE5E7014B1868D0
S31500022150704700BF848FFF1F2DE9F04FA9B0029090
S315000221604FF4926003910492059312F019FD002830
S3150002217000F0C4804FF49262002104461AF02FFD4B
S315000221809D4B9E491C604FF4006000F075F90121D9
S31500022190C4F86C0400F08EF999494FF4007000F00F
S315000221A06BF907AFC4F87004012100F083F904F15A
S315000221B0300504F1380B04F1400A04F1480904F130
S315000221C0500804F128063A466563256328460697B1
S315000221D0C4F83CB02F46C4F838B0C4F844A0C4F8DA
S315000221E040A0C4F84C90C4F84890C4F85480C4F88F
S315000221F05080E662A66227A915460DE090E80C001B
S315000222001A60026853604060006045F8040F0023BC
S315000222108D42036174D0206B8742EFD1542007911F
S3150002222012F0BEFC0799002869D00060A36AD4F8B0
S3150002223024C08360A36A406000F108020CF1010C1D
S315000222409642C6605A60A262C4F824C007D01346FA
S31500022250002BFCD01B689E4201D0002BF8D1BCF1AA
S31500022260200FD2DD96423D46134604D01B689E429D
S3150002227001D0002BFAD1236B9D4203D013B11B6808
S315000222809D42FBD1A06B834504D0034613B11B6864
S315000222909B45FBD1216C8A4504D00B4613B11B68C2
S315000222A09A45FBD1A26C914504D0134613B11B6823
S315000222B09945FBD1236D984504D01C4614B1246878
S315000222C0A045FBD1834503D010B100688345FBD1FD
S315000222D08A4503D011B109688A45FBD1914503D0DD
S315000222E012B112689145FBD198452FD02BB11B68CC
S315000222F0984508BF0023002BF9D1FEE7FEE7FEE76B
S315000223003D46226B069F57F8043F1A60206B5D60BC
S315000223108F4243601A462363F5D1049BC4F878348E
S31500022320059BC4F87C34039BC4F87434329BC4F80E
S315000223308034029B3349181C18BF0120224602F042
S315000223408DF9C4F88C04013001D1FEE7D5E704F516
S315000223509160FFF73BF84FF48063009321462A4BC6
S315000223602A480022FFF772F84FF6FF720023C4F8DC
S31500022370840462812283228427686068A26A2361B8
S31500022380C4F86834A381238163616383E361638450
S315000223901946AC4696421FD059B309688E421BD0E5
S315000223A0D1B1A1F10803BB42F4D08342F2D051F875
S315000223B0042C51F8085C156051F8085C6A601B60D1
S315000223C0226B1A60A26AD4F830E0C3F804C09642BF
S315000223D0CEF804302363DFD10FB100233B6108B18D
S315000223E0002303612046FFF739F9204629B0BDE8EC
S315000223F0F08F1146D4E700BF848FFF1FECE0030085
S31500022400FCE00300451802000CE10300E11902009A
S31500022410F8B50469022C01D00020F8BD00EB830355
S31500022420D3F86C740AB91046F8BD14460E46054632
S3150002243016F0E6FA22463146384600F03FF90446DF
S3150002244016F0D2FA05F59160FEF7E6FF2046F8BDD2
S3150002245072B110B4074C0A4411F8013B4340DBB297
S31500022460914234F8133083EA1020F5D15DF8044B1B
S31500022470704700BF1CE10300F8B505465C200F4615
S3150002248012F08EFB0026044606702FB13946402212
S315000224901AF0BBFB84F83F60284612F081FB00234A
S315000224A02064E3646564A36423656365A3652046CB
S315000224B0F8BD00BF41657047002303658364C364AA
S315000224C083657047C36C026D934206DB9A421DBF59
S315000224D0406C8018C01A00207047D01A704700BF9F
S315000224E0806C70472DE9F047436DDB0782B00446E6
S315000224F00F4615463FD5866C01966EB9C36C026DC2
S31500022500934202DB04D0416C0A44D31A032B59D8F6
S31500022510002002B0BDE8F087B542D4F84C80D4F86A
S3150002252050A0E26C236D03DB9A4278D0354603E075
S315000225309A4274D0002D73D0C24580F28680636CB5
S31500022540C8EB0309A945A8BFA9463FB1216C384685
S3150002255041444A461AF038FB636C4F44C84443452B
S31500022560D8BF4FF00008B5EB09096FD1C4F84C800B
S31500022570C9EB050554E0C66CD0F85090C26C036DE9
S315000225809A42C5D0002DC3D04E454BDD436CC6EBF7
S315000225900308A845A8BFA84639B1016C4246384689
S315000225A031441AF011FB636C474446449E42A8BF6D
S315000225B00026B5EB080836D1C8EB0500E66402B082
S315000225C0BDE8F087D4F84C80D4F85090E26C236DC5
S315000225D09A426FD0C8455CDDD4F844E0D4F840A0F6
S315000225E0C8EB0E06042EA8BF042601AB0AEB0801AF
S315000225F03246B0441846C645D8BF4FF000081AF016
S31500022600E3FAD6F1040233D1019EC4F84C80002EBF
S3150002261082D135462846A66402B0BDE8F087002579
S31500022620761BF7E7A846B145C6DDC6EB0909C145E3
S31500022630A8BFC1462FB1216C384631444A461AF02A
S31500022640C3FA4E44C9EB0808B6E7A946C2458DDD72
S31500022650C8EB0A0ACA45A8BFCA462FB1216C38463A
S31500022660414452461AF0B0FAD044CAEB09097DE752
S31500022670C145C9DDC8EB09099145A8BF9146801934
S3150002268004D00AEB08014A461AF09EFA019EC84493
S31500022690BBE70ADAC8EB0909B9F1040FA8BF4FF084
S315000226A00409D4F840A001A8EBE70026C4F84C8040
S315000226B03546AFE700263546ACE700BF2DE9F043C5
S315000226C083B015460192002A38D0436D04460F4660
S315000226D013F00101C36C006D14BF161D164683422A
S315000226E020DB626C16BF80180023C31A3344934260
S315000226F01DDA00293ED1266DD4F84C904E4521DADA
S315000227002A46C6EB09099145206CA8BF914630447A
S3150002271039464A461AF058FA4E442846266503B008
S31500022720BDE8F083C31A626C33449342E1DBA36DC6
S3150002273000200133A36503B0BDE8F083104603B061
S31500022740BDE8F083636C206CC6EB0308A845A8BFFE
S31500022750A8464246304439461AF036FA636C464475
S315000227609E42A8BF0026B5EB0802D6D0B145D4DDFD
S315000227704744C6E7D4F85080D4F84C90C84516DBD7
S31500022780C8EB0206042E206CA8BF0426324640443B
S3150002279001A91AF019FA636CB0449845A8BF4FF024
S315000227A00008D6F1040211D1C4F85080A3E704222E
S315000227B00DEB0201C8EB09099145206CA8BF9146B1
S315000227C040444A461AF000FAC844EDE7C145EBDD3B
S315000227D001AB9919EEE700BF08B506F0E1F9034926
S315000227E00B68024A002BFBD0106808BD888FFF1FBA
S315000227F010B5094CA4B004A920688022FFF772FE26
S31500022800014618B104A801F0B1FEF4E74FF0FF311A
S315000228100248FEF7E5FDEEE7A08FFF1F908FFF1F30
S315000228202DE9F04F99B0C24FDDF890C0C14DDDF8E9
S3150002283088B01CF0400F1E460CBFB846A846023BA5
S315000228401CF0100F18BF2CF0010C222B04468946EF
S3150002285000F2A2811CF0010F14BF302320231CF0CA
S3150002286002010ED0002AC0F291811CF0040F40F042
S3150002287039811CF0080104D020210BF1FF3B0091A5
S3150002288000E000911CF02001019106D0102E00F00C
S315000228904981082E08BF0BF1FF3B002A3ED13022A8
S315000228A08DF81C200125239AAA42B8BF2A461CF09D
S315000228B0110F1746C2EB0B0B4BD13246DA462E46A8
S315000228C01D46134601E00AF1FF3ABAF1000F4FF036
S315000228D0200033DDD4F880104A1C7F2AC4F88020F9
S315000228E06054F0D9944903920868029190B1CDF8E8
S315000228F014C0049316F084F80299039A08682146D4
S31500022900FFF7DCFE16F070F88C48FEF785FDDDF861
S3150002291014C0049B0022C4F88020D4E70DF11B00EA
S3150002292000251146B2FBF6F206FB1211013518F824
S31500022930011000F8011F002AF3D1B4E71A462B460C
S31500022940354616462BEAEB720BF1FF3B9144C2EB7E
S315000229500B0B009A72B1D4F880209DF8001002F198
S31500022960010ABAF17F0FC4F880A009F10109A15446
S3150002297000F2BD80019A2AB1082E00F0E180102EE5
S3150002298000F00E811CF0100F3DD198465E464B4674
S31500022990AA46B94600E0013E002E40F39880D4F8DC
S315000229A08020551C7F2DC4F8805004F80280F2D98D
S315000229B0614F3A686AB1009316F022F82A46214618
S315000229C03868FFF77BFE16F00FF85C48FEF724FD29
S315000229D0009B0022C4F88020DDE7DFF85C81D8F88E
S315000229E0003063B116F00CF832462146D8F80000E2
S315000229F0FFF764FE15F0F8FF5048FEF70DFD0023C1
S31500022A00C4F88030013FBD424FF030020ADAD4F8F2
S31500022A1080305E1C7F2EC4F8806009F10109E25401
S31500022A20F0D9DAE70DF11C0808EB0507474520D077
S31500022A30D4F8803017F8012D5E1C7F2EC4F8806012
S31500022A40E254F3D9DFF8F0A0DAF8003063B115F0FA
S31500022A50D7FF32462146DAF80000FFF72FFE15F0BF
S31500022A60C3FF3648FEF7D8FC00234745C4F880303A
S31500022A70DED15E46A84600E0013E002E4FF020025F
S31500022A801ADDD4F880305F1C7F2FC4F88070E254C0
S31500022A90F2D9294D2B685BB115F0B2FF3A462146B1
S31500022AA02868FFF70BFE15F09FFF2448FEF7B4FCDB
S31500022AB00023C4F88030DFE7BBF1000FACBF08EBA0
S31500022AC00B0008F10000484419B0BDE8F08F4F46EC
S31500022AD099462BEAEB730BF1FF3B55469944C3EB40
S31500022AE00B0B90E72B210BF1FF3B0091CAE6124A32
S31500022AF00092116891B1CDF80CC0029315F080FFD7
S31500022B00009A214610685246FFF7D8FD15F06CFF71
S31500022B100A48FEF781FCDDF80CC0029B0022C4F8CD
S31500022B20802027E7ABF1020B002A7FF4F7AEB6E668
S31500022B301CE3030044E30300A08FFF1F908FFF1FD7
S31500022B40D4F88020561C30217F2EC4F8806009F10B
S31500022B500109A1547FF616AFDFF8B080D8F800203D
S31500022B6082B18DE8081015F04BFF32462146D8F89F
S31500022B700000FFF7A3FD15F037FF2348FEF74CFCD4
S31500022B809DE808100022C4F88020FBE62D2152425F
S31500022B900BF1FF3B009175E6002019B0BDE8F08FFE
S31500022BA0D4F8806006F1010A3022BAF17F0FC4F828
S31500022BB080A0A2550CD8023698F82120C4F880606D
S31500022BC0802E09F1020904F80A207FF4DBAEC3E77E
S31500022BD00E4E32687AB18DE8081015F011FF524692
S31500022BE021463068FFF76AFD15F0FEFE0648FEF73D
S31500022BF013FC9DE8081098F821202270012209F1A1
S31500022C000209C4F88020BDE6908FFF1FA08FFF1F28
S31500022C102DE9F04FB04DB14C6E68B14FDFF8D4A23A
S31500022C20DFF8D8E2D4E9004514F1010845F10009BC
S31500022C30D7F800C0ADB044464D46CDE90445B0468E
S31500022C40A4FB0667AAFB0C54059D0792A4090893E8
S31500022C50DEE90023B6EB040A08FB057767F1000BF1
S31500022C6056469B455F4608BF96424FF00009CDE99E
S31500022C70046782460D4607D216EB08024BEB0903A0
S31500022C80CDE9042316461F46022346220AF10B010A
S31500022C904FF03A080DF12E002B93CEE900678DF81E
S31500022CA02C208DF82D8019F0A0FF504619F0A6FFB2
S31500022CB02B9B0B3B1844742802DD2DB0BDE8F08F28
S31500022CC02CAB034442F20F724FF0200E4C21954278
S31500022CD003F8828C03F884EC03F8831C00F1030BDF
S31500022CE000F35D84B5F57A7F80F28781632D00F368
S31500022CF07885092D00F32E877A4AEB1782FB051297
S31500022D00C3EBA20303EB83032CAA9344A5EB430371
S31500022D10021D303309920BF8843C16462CAA9519EB
S31500022D204FF0200B64A3D3E9002305F884BCDDE948
S31500022D300401FEF771F86C4A00235FFA80F8DDE9B8
S31500022D400401FEF769F8694A00235FFA80F9DDE9B2
S31500022D500401FEF761F84FF47A7200235FFA80FAF3
S31500022D60DDE90401FEF758F881B206913A2154A32F
S31500022D70D3E9002305F8811CDDE904018B424FF0FB
S31500022D80540E08BF824205F883BC05F882EC06F1B0
S31500022D90040BC0F040834CA3D3E900238B4208BF47
S31500022DA08242C0F089844AA3D3E900238B4208BF3A
S31500022DB08242C0F04A854E4A00238B4208BF8242B5
S31500022DC0C0F080864B4A069C4B49A2FB0403204670
S31500022DD0A1FB0001DB0898B24909A2FB0176A2FB1E
S31500022DE00072F608D20806EB860602EB820203EBB5
S31500022DF083032CAFA0EB4202BB44A1EB4601A4EB3A
S31500022E00430309983031303230330BF8841C0730D3
S31500022E1005F87F2C05F87E3C2CAB034403306D2568
S31500022E20732120227F282B9003F8845C03F8831CED
S31500022E3003F8822C3FF741AF079C2378002B00F062
S31500022E403B810026089F0FE02B9A2CA9551C1144A2
S31500022E507F2D01F8843C2B9500F2A382637801361C
S31500022E600134002B00F02781252BEDD10020637859
S31500022E70A3F12002611C102A42D8DFE802F01941B0
S31500022E8041154141414141414111410D4141090033
S31500022E9040F001000C46EAE740F010000C46E6E777
S31500022EA040F004000C46E2E740F020000C46DEE764
S31500022EB040F008000C46DAE700A493D600000000B2
S31500022EC0FF5FD71D14000000FFA393D60000000089
S31500022ED0FF86930300000000F48DFF1F28360020B2
S31500022EE024700340676666660087930340420F00BC
S31500022EF03F420F00CDCCCCCC1F85EB51988FFF1FE4
S31500022F00A3F13002092A00F265820C46002505EB80
S31500022F10850503EB450514F8013FA3F13002092AA2
S31500022F20A5F13005F3D92E2B00F05D824FF0FF3E5E
S31500022F3003F0FB02682A00F04982712B00F04682F8
S31500022F404FF0FF31A3F12502532A00F2FA81DFE89E
S31500022F5012F06301F801F801F801F801F801F8012D
S31500022F60F801F801F801F801F801F801F801F80191
S31500022F70F801F801F801F801F801F801F801F80181
S31500022F80F801F801F801F801F801F801F801F80171
S31500022F90F801F801F801F801F801F801F801F80161
S31500022FA0F801F801F801F801F801F801F801F80151
S31500022FB0F801F801F801F8019A00F801F801F801A0
S31500022FC0F801F801F801F801F801F801F801280101
S31500022FD02401F801DC00F801F8012401F801F801E6
S31500022FE0F801F801D700D500E501F801F8018001E2
S31500022FF0F8017E01F801F8019C00C149C14ADFF8D7
S31500023000188381FB0519E91782FB054CC1EBA91947
S3150002301088FB0548C1EBAC0CC1EB681882FB091EA4
S315000230204FEAE971C1EBAE0E82FB084182FB0C2A24
S315000230304FEAE872C2EBA1014FEAEC72C2EBAA02B6
S315000230400EEB8E0EA9EB4E0E01EB810102EB820214
S315000230502CAC0CEB8C09A344A8EB4101ACEB42026D
S31500023060A5EB490507300EF1300E303130323035DE
S315000230700BF884EC099003F8801C03F87F2C03F804
S315000230807E5C06464AE640F0400010236C2900F0BA
S315000230909E83682900F09E833A680437029031467F
S315000230A08DE820400BA8FFF7BBFB06466378013488
S315000230B0002B7FF4D9AE2B987D2800F3CE822CAB61
S315000230C00344841C0D210A222B9403F8841C03F862
S315000230D0832C002C3FF4F1AD8B4D2B68002B3FF473
S315000230E0ECAD15F08DFC22460BA92868FFF7E6FA2F
S315000230F015F07AFC8548FEF78FF9DEE50823C5E769
S315000231003B681E6004376378AAE6073727F007078D
S31500023110D7E9008949464046FDF7E6FD02254FF00C
S31500023120FF33024631460093019302950A238246F3
S315000231300BA8FFF775FB2B9D2CAB2B4401352E22DA
S315000231407F2D07F1080706462B9503F8842C00F21B
S3150002315034845046FDF7C8FA02460B4640464946B5
S31500023160FDF774F900226A4BFDF724FBFDF7BCFD5F
S315000231704FF0FF354FF0030E80EAE0720123A2EB17
S31500023180E072314602930BA80A23CDF800E00195BE
S31500023190FFF746FB6378064662E640F002000A2322
S315000231A074E7C10640F1BB832B9B5A1C11462CA81F
S315000231B003447F2938782B9203F8840C07F104071D
S315000231C000F20485013D002D06F10106A84604DC45
S315000231D06CE7B8F1010800F071842CAB134401329C
S315000231E020217F2A2B9203F8841CF2D9DFF818914A
S315000231F00492D9F8003063B115F002FC049AD9F8AA
S3150002320000000BA9FFF75AFA15F0EEFB3F48FEF74E
S3150002321003F900222B92DCE72B9A2CAB551C1344A4
S315000232207F2D4FF0250206F101062B9503F8842C1B
S315000232307FF63CAFDFF8D080D8F80030002B00F0E4
S31500023240AC8015F0DDFBD8F800002A469DE00A2383
S315000232501CE7D7F800A02F4B07F10408BAF1000FBC
S3150002326008BF9A46BEF1000F00F0F0839AF80030CC
S31500023270002B00F0EB830AEB0E020AF1010304E0D5
S3150002328019780133002900F09D8493429946F7D1BB
S31500023290CAEB0309C20600F1A7834D4505F1FF3CBF
S315000232A040F3A1832B9F09F1FF33E34604E00BF1C0
S315000232B0FF3B9B4500F07E842CAA3A44013720212D
S315000232C07F2F2B9702F8841CF1D90F4A04921168BA
S315000232D091B10793CDF818C015F092FB049A0BA989
S315000232E010683A46FFF7EAF915F07EFB0748FEF743
S315000232F093F8079BDDF818C000272B97D7E700BF86
S31500023300D34D621067666666A08FFF1F908FFF1F00
S3150002331000408F406CE303001F85EB516B1C04BF1A
S3150002332040F0010008253A680290314610230095C4
S31500023330CDF804E00BA8FFF773FA04370646637864
S315000233408EE52B9A11462CAA4D1C0A4425207F2D68
S315000233502B9502F8840C00F21283002B00F0DC821B
S315000233602CAA01F102081544B8F1800F05F8843C35
S31500023370CDF8AC8006F102067FF498AEC64D2B68F6
S315000233805BB115F03DFB286842460BA9FFF796F99B
S3150002339015F02AFBC148FEF73FF800232B9363780A
S315000233A05EE5DFF8F482D8F8003063B115F028FB49
S315000233B02A460BA9D8F80000FFF780F915F014FB8E
S315000233C0B648FEF729F800232B9347E51946013440
S315000233D02378B7E52A2B00F04A812E2B0C464FF0B4
S315000233E0FF357FF4A3AD6378A3F13002092A04F115
S315000233F0010100F249810C464FF0000E0EEB8E02DF
S3150002340003EB420214F8013FA3F130010929A2F1AC
S31500023410300EF3D98CE5A24A1423FDF7FDFCC0B2A7
S31500023420A0EB800208EBC2029E4B0699A8EB081C91
S315000234305FFA82F89C4AA3FB003EA2FB0132994B3B
S3150002344009EB8C0C4FEADE0EA9EB0919A3FB083730
S315000234500AEB890A934B5FFA8EF90EEB8E0EA0EBFE
S315000234604E0056095FFA8CFC34460490A3FB0C36D8
S315000234708C488C4B069A5FFA8AFAA3FB0A31A0FBA8
S3150002348009E0884BC008A3FB023200EB80002CAB9C
S315000234905B44A9EB400909F1300903F8849CFF0853
S315000234A0804B06985FFA87FEA3FB0E39F60807EBF8
S315000234B087077C4B4FEAD909A8EB470809EB89092C
S315000234C0F7B2AEEB490EA3FB0739C908754B4FEAB3
S315000234D0D9095FFA81FB09EB8909A7EB4907A3FB27
S315000234E00B39D20806EB86066E4B4FEAD909ACEBCE
S315000234F0460C09EB890996B2ABEB490BA3FB0639DD
S31500023500684B02EB8202A0EB420204980494A3FBEE
S3150002351004434FEAD909DB08049C01EB810109EB5C
S31500023520890903EB8303AAEB410108F1300800F194
S31500023530300A0CF1300CA6EB49090EF1300E09984F
S3150002354005F87C8CA4EB43033031303230370BF173
S31500023550300B09F13009303364264FF0680805F85C
S315000235607DEC05F879CC4FF06D0E4FF0730C1330ED
S3150002357005F87FAC05F87A7C05F8761C05F877BC69
S3150002358005F8722C05F8739C05F8743C05F87E6CF8
S3150002359005F87B8C05F878EC05F875CC3CE44349D4
S315000235A0DFF80CA1DFF80C91DFF8FC8081FB052126
S315000235B0EA17C2EB213E8AFB0E1C4FEAEE7189FB2B
S315000235C0054988FB0548C1EBAC018AFB054CC2EBF9
S315000235D0A919C2EB681801EB8101C2EBAC028AFBA6
S315000235E0024CAEEB41014FEAE27ECEEBAC0C0CEBA9
S315000235F08C0CA2EB4C0C2CAC02EB82025C44A5EBCD
S3150002360042058AFB096B4FEAE8728AFB086A4FEAAF
S31500023610E97EC2EBAA0ACEEBAB0E0EEB8E0E0AEBDE
S315000236208A0AA9EB4E0EA8EB4A0800F108023031CD
S315000236300CF1300C30350EF1300E08F1300804F87A
S31500023640841C099203F87ECC03F87D5C03F880ECB7
S3150002365003F87F8C1646FFF761BB80200D220A23F2
S315000236608DF8AA208DF8AB302B90044634E53D68E0
S31500023670A378002D04F1020207F10407BCBF6D42D4
S3150002368040F0100014464EE42A2B00F083820C46CA
S315000236904FF0000E4CE400BFA08FFF1F908FFF1F5C
S315000236A00060D71DCDCCCCCC1F85EB51AD8BDB6832
S315000236B067666666D34D6210A8EB0811CE4B069C70
S315000236C0A9EB091209EB81090AEB820A5FFA89F969
S315000236D0CA4AA3FB0816A3FB09102146F608A2FB59
S315000236E001125FFA8AFAA3FB0A714FEA521EF7B277
S315000236F0A3FB04C206EB860C2CAE5E44A8EB4C0878
S315000237000496A3FB07C6F608C00806EB8606C90898
S31500023710A7EB4607C6B200EB8000D208A9EB400928
S31500023720C8B201EB8101AAEB410A91B202EB820215
S31500023730A4EB420BA3FB0642D20802EB8202A6EBE3
S315000237404206A3FB0042D20802EB8202A0EB420031
S31500023750A3FB012C4FEADC0CA3FB0E23DB080CEBCC
S315000237608C0CA1EB4C0C03EB83030499AEEB4303E5
S31500023770303700F13002099801F8847C08F13008EC
S3150002378009F1300930360AF1300A0BF1300B0CF12F
S31500023790300C303368276D214FF0730E103005F868
S315000237A07F8C05F87C9C05F87D6C05F879AC05F8EC
S315000237B07A2C05F875BC05F876CC05F8773C05F841
S315000237C07E7C05F87B1C05F878ECFFF725BB3A688A
S315000237D0043763E43A88391D870748BF12B20F4699
S315000237E05CE4DFF824E285498EFB054C81FB05216A
S315000237F0EA17C2EB6111C2EBAC028EFB01494FEA3A
S31500023800E1788EFB024E4FEAE27CCCEBAE0CC8EBC3
S31500023810A90802EB820E08EB88080CEB8C0C2CAC88
S31500023820A344A1EB4801A2EB4C02A5EB4E050630E0
S315000238303031303230350BF8841C099003F8802C75
S3150002384003F87F5C0646FFF769BAA9EB09106A4BD3
S315000238506A4F0AEB8000C0B2A3FB0921A3FB004218
S31500023860069CA3FB04E6F608C9081FFA86FC5FFA63
S3150002387081FE06EB860A01EB81012CAEA9EB410122
S31500023880B344A3FB0E96D208F60806EB8606A7FB00
S315000238900478D7B202EB8202AEEB460EA0EB4202EE
S315000238A0A3FB0760C00800EB80004FEA5818A7EB9D
S315000238B04007A3FB0C60C008A3FB0863DB0800EB10
S315000238C08000ACEB400003EB8303A8EB430300F15B
S315000238D0300CA4EB4A06099830310EF1300E303224
S315000238E03037303630334FF06D094FF073080BF82E
S315000238F084EC0D3005F87F1C05F87C2C05F87D7CE0
S3150002390005F8786C05F879CC05F87A3C05F87E9CC2
S3150002391005F87B8CFFF780BA2846FFF7CDBB013D41
S31500023920002DA8462B9B06DC6AE10B461146B8F130
S31500023930010800F03B812CAA1A44591C20207F2939
S3150002394002F8840C2B9103F10202EED9DFF8B4904F
S315000239500491D9F800306BB115F052F80499D9F8F0
S3150002396000000A460BA9FEF7A9FE15F03DF8244809
S31500023970FDF752FD002301212B930A46D7E7DFF814
S315000239808480D8F800206AB115F03AF82A460BA9C5
S31500023990D8F80000FEF792FE15F026F81848FDF753
S315000239A03BFD2378002B00F0288101228DF82C3074
S315000239B02B9202366378FFF753BADFF848B0DBF88A
S315000239C0003063B115F01CF82A460BA9DBF800009B
S315000239D0FEF774FE15F008F80948FDF71DFD0023F1
S315000239E02B93FFF7B6BB6546B9F1000F34DD2B9F6B
S315000239F00AEB090B0CE000BFCDCCCCCC1F85EB51FA
S31500023A00908FFF1FA08FFF1F67666666DA4553D049
S31500023A102CAB3B4401371AF8012B03F8842C7F2F79
S31500023A202B97F3D9784B04931A6862B114F0E8FF26
S31500023A30049B3A4618680BA9FEF740FE14F0D4FF21
S31500023A407248FDF7E9FC00272B97DFE710F0100913
S31500023A503FF423AC4FF000094D4505F1FF3A27DD4F
S31500023A602B9F09F1FF3B03E00AF1FF3ADA451CD02E
S31500023A702CAB3B44013720227F2F2B9703F8842C53
S31500023A80F2D9614B04931A6862B114F0B9FF049B30
S31500023A903A4618680BA9FEF711FE14F0A5FF5B481B
S31500023AA0FDF7BAFC00272B97DEE7C9EB05052E4486
S31500023AB047466378FFF7D4B94E44CDE72E44637880
S31500023AC0FFF7CEB9524B069C5248A3FB0A21A3FB31
S31500023AD00462C908D208CFB21FFA82FEA0FB040C08
S31500023AE04FEA5C1CA3FB0706A3FB0E80C008A3FBE0
S31500023AF00C83F608DB0802EB820200EB8000AEEBD9
S31500023B004000A4EB420201EB810106EB860603EBC1
S31500023B1083030DF1B008A7EB460602F1300EC3444B
S31500023B2000F13002AAEB4101ACEB430309983031B4
S31500023B303036303373270BF8846C0A3005F87F1C55
S31500023B4005F87BEC05F87C2C05F87D3C05F87E7CB7
S31500023B50FFF762B93049EA1781FB054EC2EBAE02A6
S31500023B6081FB021ED117C1EBAE0101EB810102EB13
S31500023B70820E2CACA2EB4102A344A5EB4E0105300A
S31500023B80303230310BF8842C099003F8801C06463B
S31500023B90FFF7C4B8D7F800E0A378A21CBEF1000F65
S31500023BA007F104071446BFF6C3A971E52E440025A2
S31500023BB0FFF7FDBAC5EB0C0CC9EB05052E440CEB61
S31500023BC0090511E7CAEB0909FFF764BBDFF838807C
S31500023BD00492D8F8003063B114F012FF049AD8F8B0
S31500023BE000000BA9FEF76AFD14F0FEFE0748FDF77A
S31500023BF013FC00222B92FFF7E5BA1846FFF75CBAD0
S31500023C005A1C1146FFF7D3BAA08FFF1F908FFF1FD2
S31500023C10CDCCCCCC1F85EB516766666608B400B581
S31500023C2082B003AB53F8042B0193FEF7F1FF02B007
S31500023C305DF804EB01B0704700B50D4983B04FF44F
S31500023C408060FEF719FC0B4B18600B48FDF7BEFBB4
S31500023C504FF4806300930021084B09480322FDF7C5
S31500023C60F5FB084B1860012003B05DF804FB00BFAA
S31500023C7090E30300A08FFF1F908FFF1F9CE30300BA
S31500023C80F12702008C8FFF1F10B500F01F0082B0D3
S31500023C9040000023012A40F00100ADF800300C4636
S31500023CA0ADF804308DF8010008BF8023684601A9EB
S31500023CB008BF8DF8003001F061FA30B92CB19DF8D9
S31500023CC004209DF80530A270237002B010BD00BF1B
S31500023CD010B5400082B00023012A60F03E00ADF824
S31500023CE000300C46ADF804308DF8010008BF802381
S31500023CF0684601A908BF8DF8003001F03FFA30B9D5
S31500023D002CB19DF804209DF80530A270237002B0F4
S31500023D1010BD00BF30B583B002AC00F01F0004F83E
S31500023D20081D400040F0400301A9204600248DF8FA
S31500023D3001301546ADF8044001F020FA30B92DB134
S31500023D409DF804209DF805306A702B7003B030BDD3
S31500023D50002849D0002947D02DE9F0474C1EE4B28D
S31500023D60013404EB440486B006460444471C07E0CB
S31500023D70B37871782B40994238D10336A64242D0A5
S31500023D8017F8013C96F801808DF8108003F01F03A6
S31500023D905B0043F040034FF0000905A904A88DF823
S31500023DA01130ADF8149001F0E9F917F8013CADF8BD
S31500023DB0109003F01F035B00824643F0010304A840
S31500023DC005A9ADF814908DF8113001F0D7F9033733
S31500023DD040EA0A0208B99DF8145012F0FF02C7D051
S31500023DE0012006B0BDE8F087002070473378084806
S31500023DF08DE828014FF4B271064BFFF70FFF012041
S31500023E0006B0BDE8F087002006B0BDE8F08700BF27
S31500023E10A4E30300CCE303002DE9F04383B0074695
S31500023E2001A90E200122FFF72FFF0546A0B99DF832
S31500023E30063003F0F803182B0ED8DFE803F0970DCF
S31500023E400D0D0D0D0D0D9D0D0D0D0D0D0D0D990D7E
S31500023E500D0D0D0D0D0D9B00052601A90122122047
S31500023E60FFF712FF6946044600220F20FFF730FFD4
S31500023E702043054369460F200122FFF729FF9DF8DB
S31500023E800230EDB228439B07E846C5B257D40E204E
S31500023E9001A90122FFF7F8FEA8B99DF8063003F042
S31500023EA0F803182B00F2BD80DFE803F03CBBBBBB76
S31500023EB0BBBBBBBBB9BBBBBBBBBBBBBBB7BBBBBB50
S31500023EC0BBBBBBBBB5002843C5B25EB30A201F21EC
S31500023ED00022FFF71FFF20B9024601A90A20FFF7B9
S31500023EE0D3FE424600210D20FFF714FF0E2001A942
S31500023EF00122FFF7C9FEE8B99DF8063003F0F80380
S31500023F00182B05D1B868397BFFF722FF2843C5B2C3
S31500023F1001A901221220FFF7B7FE2843C0B203B05F
S31500023F20BDE8F08338683979FFF712FF2843C5B236
S31500023F300026CBE72843032EC5B2E9D1E2E70920E2
S31500023F4001A90022FFF7A0FE18B99DF8069009F014
S31500023F503F096FEA090101F03F0141F040010920E2
S31500023F600022FFF7D7FE2843C5B290E7002674E782
S31500023F70022672E7032670E7092001A90022FFF74D
S31500023F8083FE18B99DF8061001F03F04E14301F0E3
S31500023F903F0109200022FFF7BDFE0126002406E0AC
S31500023FA0022E2ED042F210739C422AD001341E4BAE
S31500023FB0A3FB0423DB094FF4FA6202FB1343002B33
S31500023FC0EED10E2001A90122FFF75EFEA8B99DF8E7
S31500023FD0063003F0F803182B1BD8DFE803F00D1A9E
S31500023FE01A1A1A1A1A1A181A1A1A1A1A1A1A161A2F
S31500023FF01A1A1A1A1A1A140000262843022EC5B2D1
S31500024000D0D1E84662E70326F7E70226F5E701265E
S31500024010F3E70526F1E7032658E7022656E70126C7
S3150002402054E7052652E700BFD34D621070B582B041
S31500024030054601A909200022FFF726FE18B99DF8B8
S31500024040061001F03F04E14301F03F0141F0400157
S3150002405000220920FFF75EFE01A9044601220E2076
S31500024060FFF712FEA0B99DF8063003F0F803182BED
S315000240704FD8DFE803F0114E4E4E4E4E4E4E4A4E8C
S315000240804E4E4E4E4E4E4C4E4E4E4E4E4E4E48009E
S3150002409020430026C4B236B928682979FFF758FEAC
S315000240A02043C4B200260A201F210022FFF732FE57
S315000240B020B9024601A90A20FFF7E6FD00216A4659
S315000240C00D20FFF727FE0E2001A90122FFF7DCFDD6
S315000240D0A0B99DF8063003F0F803182B05D1A8689D
S315000240E0297BFFF735FE2043C4B201A90122122023
S315000240F0FFF7CAFD2043C0B202B070BD2043032EB3
S31500024100C4B2F2D1EBE70326CDE70126CBE70226BE
S31500024110C9E70526C7E700BF024600210D20FFF7C3
S31500024120F9BD00BF072801D90120704710B5044622
S3150002413082B00020024601A9FFF7A6FD024610B191
S31500024140104602B010BD9DF8063003F01F0343EA85
S315000241504414E4B22146FFF7DDFD02460028EFD102
S3150002416001A9FFF791FD0028EBD19DF806305C40CE
S3150002417014F0E00F14BF01200020E2E710B5044658
S3150002418082B00020024601A9FFF77EFD18B99DF80C
S3150002419006305B09237002B010BD00BF10B504469D
S315000241A082B0032946D8DFE801F0262C1D020E2034
S315000241B001A90122FFF78CFDD8B99DF8063003F05C
S315000241C0F803182B32D8DFE803F02E3131313131C2
S315000241D031312A31313131313131263131313131D9
S315000241E0313122000E2001A90022FFF771FD0028BD
S315000241F0E3D002B010BD01A900220E20FFF744FD54
S31500024200DAE701A901220E20FFF73EFDD4E70323D8
S3150002421023700020EDE7022323700020E9E7012343
S3150002422023700020E5E700202070E2E705232370D3
S315000242300020DEE70120DCE710B5022182B01B4830
S31500024240FFF786FD694600221020FFF741FD694609
S31500024250044601221020FFF73BFD69460443002273
S315000242601320FFF735FDE4B2694604430022142009
S31500024270FFF72EFDE4B20443694601221120FFF73F
S3150002428027FDE4B2204310F0FF0001D002B010BDBA
S3150002429007480221FFF75CFD0028F7D101A9012298
S315000242A01220FFF7F1FC02B010BD00BF00E40300CC
S315000242B0F8E3030010B582B0044601A910200022DB
S315000242C0FFF7E2FC08B102B010BD9DF8063024F0FB
S315000242D03F0103F03F03024619431020FFF71AFD80
S315000242E00028F0D1024601A91020FFF7CDFC0028D4
S315000242F0E9D19DF806305C4014F0C00F14BF0120CE
S315000243000020E0E710B582B0044601A91020002281
S31500024310FFF7BAFC18B99DF806309B09237002B064
S3150002432010BD00BF10B582B0092001A90022FFF717
S31500024330ABFC18B99DF8061001F03F04E14301F009
S315000243403F0100220920FFF7E5FC02B010BD00BFC5
S3150002435068B110B582B0044601A910200122FFF708
S3150002436093FC10B99DF80630237002B010BD0120EF
S31500024370704700BF68B110B582B0044601A911208A
S315000243800122FFF781FC10B99DF80630237002B0B6
S3150002439010BD0120704700BF68B110B582B0044657
S315000243A001A90F200022FFF793FC10B99DF80630F1
S315000243B0237002B010BD0120704700BF68B110B56E
S315000243C082B0044601A90F200122FFF781FC10B931
S315000243D09DF80630237002B010BD0120704700BF61
S315000243E068B110B582B0044601A911200022FFF778
S315000243F06FFC10B99DF80630237002B010BD012083
S31500024400704700BF68B110B582B0044601A91120F9
S315000244100122FFF75DFC10B99DF80630237002B049
S3150002442010BD0120704700BF68B110B582B00446C6
S3150002443001A913200022FFF74BFC10B99DF80630A4
S31500024440237002B010BD0120704700BF68B110B5DD
S3150002445082B0044601A914200022FFF739FC10B9E4
S315000244609DF80630237002B010BD0120704700BFD0
S31500024470B0B130B583B001A9002204461020FFF77F
S3150002448027FC01A9102001229DF80650FFF720FC07
S3150002449020B99DF8063045EA0325258003B030BDD4
S315000244A001207047B0B130B583B001A9002204469D
S315000244B01220FFF70DFC01A9122001229DF80650D9
S315000244C0FFF706FC20B99DF8063045EA032525804C
S315000244D003B030BD01207047142801D9012070476E
S315000244E010B582B00C46002201A9FFF7CDFB10B928
S315000244F09DF80630237002B010BD00BF00200149AE
S3150002450012F0EABAA01C0400002012F017BB00BF8A
S31500024510002012F0EFBA00BF08B514F071FA054B8D
S31500024520054A5A601A6842F080021A60BDE80840DD
S3150002453014F05ABA0020054020C528D908B5074903
S31500024540074A002012F008FF4FF4FA7200200549CC
S3150002455012F034FE044B01221A7008BD5C4600209C
S31500024560B01C040090360020A48FFF1F044B1B785A
S315000245700A4603B970470146002012F0DBBD00BFB0
S31500024580A48FFF1F08B50121002014F0FBF904498E
S31500024590D1E90023013243F10003C1E9002308BD3A
S315000245A02836002008B50020022114F0EBF9BDE8F8
S315000245B0084007F095BB00BFF8B5144F144E154DD1
S315000245C0154C1649002300220020C7E90023C6E93C
S315000245D00023C5E90023C4E9002314F095F800205E
S315000245E001460F4A14F0C4F830200E49002214F096
S315000245F0CFF901210C4A002014F0BAF831200B49F8
S315000246000022BDE8F84014F0C3B900BF58360020B6
S31500024610683600202836002050360020081D040087
S31500024620F48DFF1F85450200F01C0400A54502001B
S3150002463008B50020012114F09DF900200221BDE8F1
S31500024640084014F097B900BF136833B111B151682D
S31500024650012018470846516818477047F8B50A4FAF
S315000246600A4D4601BC19B95162600FCD022704F109
S315000246700C050FC5A76004F10C0238460449E46133
S3150002468012F0DEFF2046F8BDA88FFF1FBC1C0400F7
S31500024690A046002008B580689BB213F04BF808BD0F
S315000246A009B900F057BE00F04DBE00BFF0B585B0A7
S315000246B003A8FFF771FE134C87B204F1600602E00D
S315000246C00C34B4421BD022789DF80C301A42F7D033
S315000246D06568284618F092FA294680B207F0CCF8A7
S315000246E0094B0095094840F2A1110022FFF796FAFC
S315000246F0A368002BE4D00C349847B442E3D1384681
S3150002470005B0F0BD68E50300E0E50300C8E5030077
S3150002471030B585B003A8FFF751FE9DF80C3084B280
S31500024720D80733D499070ED5204D1A20294607F00B
S31500024730A3F81F4B00951F484FF4DF710022FFF7C5
S315000247406DFA9DF80C305A070ED51B4D15202946D9
S3150002475007F092F8164B009516484FF4DF710022C7
S31500024760FFF75CFA9DF80C30DB060CD5134D2520BD
S31500024770294607F081F800950E480D4B4FF4DF717C
S315000247800022FFF74BFA204605B030BD0C4D212022
S31500024790294607F071F8064B009506484FF4DF717B
S315000247A00022FFF73BFA9DF80C30BBE708E6030050
S315000247B0E0E50300C8E5030024E603003CE6030047
S315000247C0E4E50300F0B585B003A8FFF709FE134C34
S315000247D087B204F1600602E00C34B4421BD02278A0
S315000247E09DF80C301A42F7D06568284618F006FA8A
S315000247F0294680B207F040F8094B009509484FF464
S31500024800FD710022FFF70AFAA368002BE4D00C34EC
S315000248109847B442E3D1384605B0F0BD08E5030037
S31500024820E0E50300C8E50300F0B585B003A8FFF78D
S31500024830E9FD134C87B204F1600602E00C34B4427F
S315000248401BD022789DF80C301A42F7D065682846AC
S3150002485018F0D4F9294680B207F00EF8094B0095F4
S31500024860094840F217210022FFF7D8F9A368002B66
S31500024870E4D00C349847B442E3D1384605B0F0BDD3
S3150002488038F30300E0E50300C8E5030030B585B060
S3150002489003A8FFF7C9FD9DF80C30D90784B266D488
S315000248A09A070ED53A4D1720294606F0E5FF394BF1
S315000248B00095394840F235210022FFF7AFF99DF8FD
S315000248C00C305D070ED5354D1F20294606F0D4FF64
S315000248D0304B0095304840F235210022FFF79EF911
S315000248E09DF80C3018070ED52D4D1B20294606F0D3
S315000248F0C3FF284B0095284840F235210022FFF7D6
S315000249008DF99DF80C30D9060ED5264D182029466C
S3150002491006F0B2FF1F4B00951F4840F235210022D8
S31500024920FFF77CF99DF80C309A060ED51E4D1B201A
S31500024930294606F0A1FF174B0095174840F235218C
S315000249400022FFF76BF99DF80C305B060CD5174D6C
S315000249501820294606F090FF00950F480D4B40F2AD
S3150002496035210022FFF75AF9204605B030BD104D19
S315000249701C20294606F080FF064B0095064840F2A9
S3150002498035210022FFF74AF99DF80C3088E700BF6F
S3150002499084E60300E0E50300C8E503009CE60300A5
S315000249A0BCE60300D8E60300F4E6030010E70300C2
S315000249B064E6030030B585B003A8FFF747FD9DF80E
S315000249C00C30D90784B266D49A070ED53A4D172011
S315000249D0294606F051FF394B0095394840F25221DB
S315000249E00022FFF71BF99DF80C305D070ED5354DF9
S315000249F01F20294606F040FF304B0095304840F212
S31500024A0052210022FFF70AF99DF80C3018070ED53D
S31500024A102D4D1B20294606F02FFF284B00952848CE
S31500024A2040F252210022FFF7F9F89DF80C30D90620
S31500024A300ED5264D1820294606F01EFF1F4B00955F
S31500024A401F4840F252210022FFF7E8F89DF80C3089
S31500024A509A060ED51E4D1B20294606F00DFF174B52
S31500024A600095174840F252210022FFF7D7F89DF829
S31500024A700C305B060CD5174D1820294606F0FCFEB5
S31500024A8000950F480D4B40F252210022FFF7C6F85F
S31500024A90204605B030BD104D1C20294606F0ECFE1E
S31500024AA0064B0095064840F252210022FFF7B6F85F
S31500024AB09DF80C3088E700BF4CE70300E0E50300F1
S31500024AC0C8E5030064E7030084E70300A0E70300E8
S31500024AD0BCE70300D8E703002CE70300F0B585B076
S31500024AE003A8FFF7DFFC134C87B204F1900602E03D
S31500024AF00C34B4421BD0BDF80C3022881A42F7D0CF
S31500024B006568284618F07AF8294680B206F0B4FE9F
S31500024B10094B0095094840F26F210022FFF77EF803
S31500024B20A368002BE4D00C349847B442E3D138464C
S31500024B3005B0F0BD78E40300E0E50300C8E5030034
S31500024B40F0B585B003A8FFF793FC134C87B204F1C6
S31500024B50B40602E00C34B4421BD0BDF80C302288F5
S31500024B601A42F7D06568284618F048F8294680B2F6
S31500024B7006F082FE094B009509484FF4EE710022B9
S31500024B80FFF74CF8A368002BE4D00C349847B442E4
S31500024B90E3D1384605B0F0BD68F40300E0E5030052
S31500024BA0C8E5030070B5114B114E1249124A002492
S31500024BB01C605C609C60DC6020463480B47013F03C
S31500024BC0B1F80122054621462046134613F058F94C
S31500024BD0284380B200B970BD22460848084B40F20D
S31500024BE03731BDE87040FFF719B800BFF08FFF1FDD
S31500024BF0EC8FFF1FD8460020D01C0400C8E5030036
S31500024C00F4E703000E4B0F4A70B50F4C1A600521EC
S31500024C1001220E4D2270042618461E719D601973DC
S31500024C20FFF7FAF8002280B2227000B970BD084878
S31500024C30084B40F24631BDE87040FEF7EFBF00BFB9
S31500024C40F08FFF1F1CF503000090FF1F58F40300AE
S31500024C50C8E5030010E8030008B5FFF7EDFA80B2D5
S31500024C6030B10548054B40F25F310022FEF7D6FF10
S31500024C70034B01221A7008BDC8E5030040E8030091
S31500024C80EB8FFF1F10B50748FFF7D0F980B200B9C6
S31500024C9010BD0548054B40F26E310022BDE81040BA
S31500024CA0FEF7BCBFF08FFF1FC8E503005CE80300F8
S31500024CB02DE9F04184B00DF10D000021FFF76EFAE7
S31500024CC080B2002840F062819DF80D30032B00F27D
S31500024CD0FD81DFE813F0B101C50104001E001820B2
S31500024CE0B64906F0C9FDB648B44B40F2ED31002292
S31500024CF0FEF794FFB348FFF70FFA80B230B1B0481F
S31500024D00B14B4FF4C0710022FEF788FFAF48FFF7A0
S31500024D108DF9AF4C2378002B57D1AE4A1378013365
S31500024D20DBB2042B137000F00381022B67D00DF166
S31500024D300F050DF10E00FFF721FA84B2002C40F0A8
S31500024D40EF809DF80E30072B14D01920A24906F0E9
S31500024D5093FD9DF80E3000939948A04B40F2FE2138
S31500024D602246FEF75BFF0720FFF7DCF980B2002838
S31500024D7040F09C812846FFF7C5FA85B2002D40F027
S31500024D80C7809DF80F30032B14D01920944906F0E2
S31500024D9073FD9DF80F3000932A468948914B40F2E5
S31500024DA01231FEF73BFF0320FFF784FA85B2002D8E
S31500024DB040F06C818C490B780133DBB2032B49D866
S31500024DC028460B7004B0BDE8F081884D884B2A78DE
S31500024DD01B789A4200F2E5808649874B31F8121019
S31500024DE033F8123076488DE80A000022834B40F2EF
S31500024DF0AE31FEF713FF2B7801332B708DE7804F10
S31500024E003B78002B93D07F4C0DF10F0504F1380847
S31500024E100AE09DF80FE066688DE84040FEF7FEFE68
S31500024E200834444500F0638129462078FFF754FB95
S31500024E3086B240F292316248734B3246002EE8D077
S31500024E40636800935E48714B40F296310022FEF78A
S31500024E50E5FEE5E700245B480C70FFF75DF986B2D4
S31500024E60002E40F01B81574ADFF8C881117853782B
S31500024E70674C43EA01233543A8F8003004F1C00722
S31500024E8004E00C34BC421BD0B8F80030228813422E
S31500024E90F7D06668304617F0B1FE314680B206F0AA
S31500024EA0EBFC5C4B0096464840F28F210022FEF74F
S31500024EB0B5FEA368002BE4D00C349847BC42E3D17C
S31500024EC0554E3046FFF744FA83B20446002B40F0B3
S31500024ED0F580337823F07F0101F0FF07002900F007
S31500024EE0118103F0400303F0FF06002B00F01B8143
S31500024EF04A48FFF73FFA83B20646002B40F0FA8093
S31500024F0046EA0400C0B20543A8B204B0BDE8F08187
S31500024F102B48434B40F21D310022FEF77FFE49E744
S31500024F202748404B40F209310022FEF777FE21E77F
S31500024F30334F3B7800211170002B3FF4F8AE3A4C08
S31500024F400DF10F0504F138080AE09DF80FE06668D6
S31500024F508DE84040FEF762FE0834444500F0C78003
S31500024F6029462078FFF7B8FA86B240F28131144812
S31500024F70254B3246002EE8D0636800931048234B37
S31500024F8040F285310022FEF749FEE5E70C48274B41
S31500024F904FF476710022FEF741FE012004B0BDE80F
S31500024FA0F081013300930648214B40F2B3310022CF
S31500024FB0FEF734FE00232370AFE600BFF8E80300D5
S31500024FC0C8E50300EC8FFF1F14E90300F08FFF1FF3
S31500024FD0E88FFF1F0D90FF1F68E9030084E90300B5
S31500024FE0DCE90300F8E90300E98FFF1FEA8FFF1FE0
S31500024FF08438002088380020503900203CE903001C
S31500025000EB8FFF1F40E4030078E8030088E8030003
S3150002501098F30300E0E503000490FF1F0C90FF1FC6
S315000250202CEA0300BCE9030008E40300BCE8030021
S3150002503058E903000890FF1F0E204249424C06F031
S315000250401BFC404B41484FF478710022FEF7E6FD07
S315000250503F48FEF7EBFF2378002B3FF45EAEB4E643
S315000250600F203C49384C06F007FC3A4B374840F2D1
S31500025070E6310022FEF7D2FDFFF754F93448FEF777
S31500025080D5FF2378002B3FF448AE9EE62F48324BDD
S3150002509040F217310022FEF7C1FD8BE622462B486D
S315000250A02E4B4FF4C071FEF7B9FDDCE622462748C7
S315000250B02B4B40F20331FEF7B1FD5BE62348294B49
S315000250C04FF42F710022FEF7A9FD11E70F202649A2
S315000250D01D4C06F0D1FB244B1C4840F2F93100224C
S315000250E0FEF79CFD2378002B3FF417AE6DE60023F6
S315000250F03B701EE615481D4B40F2DF210022FEF7EB
S315000251008DFDFDE6DFF870801E20414606F0B4FBF9
S31500025110174BCDF800803A460C4840F2AE21FEF716
S315000251207DFD3378DDE6134F2020394606F0A4FBD9
S315000251300097324605480E4B40F2AE21FEF76EFD51
S31500025140D6E600BFD8E80300E88FFF1FC8E50300D4
S31500025150F08FFF1FE8E8030010EA030014E90300DA
S3150002516098E903008CEA03002CE90300B0EA030085
S31500025170E0E5030068EA030048EA0300F0B585B0FB
S3150002518005230678457800930C46002002A903AA57
S3150002519002238DF808608DF8095012F0DBFE10F03C
S315000251A0FF0F27D12CB19DF80C209DF80D302270EF
S315000251B06370154B1878D8B114489DF80D509DF8B8
S315000251C009C09DF808109DF80C200378104F114E67
S315000251D0114C42EA052241EA0C2103F1010E012596
S315000251E027F8131026F8132080F800E02570002017
S315000251F005B0F0BD09480A4B40F21F410022FEF7F6
S315000252000DFD012005B0F0BD0090FF1F843800207F
S315000252108838002050390020E88FFF1FC8E50300B8
S31500025220D4EA0300084691B205F052BE2DE9F843CE
S315000252301A48032111F062FD194B1B780BB9BDE820
S31500025240F8831848184B194A19495668194AD0E979
S3150002525000891B6818F10108A1FB031349F1000933
S31500025260A8FB0645D2E900019B09E41A06FB09558B
S3150002527065F100058D4208BF84424FF0000701D256
S31500025280A4197D410C4B0D480121C2E90045C0E934
S3150002529000451970BDE8F84305F0EEBD00D00440A4
S315000252A01F3A00202836002024700340F48DFF1F89
S315000252B0CDCCCCCC1090FF1F223A0020283A0020F9
S315000252C0014B00221A8070470684FF1F034A138887
S315000252D0142B9CBF01331380704700BF0684FF1F47
S315000252E0034B1869C0F3C00080F00100704700BF8D
S315000252F0C0F00F40064B1B691B0701D40120704703
S31500025300044B188814288CBF00200120704700BF68
S31500025310C0F00F400684FF1F08B5012203480C2186
S3150002532011F0F4FC024B01221A7008BD40F00F4046
S315000253301F3A002002480C21002211F0E7BC00BFF0
S3150002534040F00F4002481021002211F0DFBC00BFDE
S3150002535080F00F4002481021012211F0D7BC00BF95
S3150002536080F00F4008B50A49582011F0B1FC0948EF
S315000253700C21002211F0CAFC00214022064817F037
S315000253802EFC0649064A00230B709370D37008BDA3
S3150002539028F5030040F00F401C90FF1F0E90FF1FE0
S315000253A0183A002000B50E4983B0592011F090FC3E
S315000253B00C4900223F2013F0EBFA3F2013F0FCFACF
S315000253C013F01EFB00200246034607490090FCF735
S315000253D0C3FE13F009FB03B05DF804EBFFF7AEB8AA
S315000253E09C85FF1F2D5202002552020010B5144C57
S315000253F00A2001F02BFE01F037FE22781149531CD8
S31500025400DBB21F2B21F81200237017D9002222705B
S315000254108B1E01F13E0033F8021F83420A44FAD181
S31500025420C2F34F12C2EB0210074B084902EB80028D
S3150002543083FB0203D217C2EBA3020A8010BD00BF90
S315000254400E90FF1F1C90FF1F95204F09303A002037
S31500025450244B1B7810B40BB3234B1B6913F00103C7
S3150002546030D122482249234A002303800B7013714C
S31500025470214B1B69C3F300239BB920490A880132D9
S3150002548092B2042A2AD91B4A194C50780B8001235E
S315000254901370637000B99370012353705DF8044B67
S315000254A07047144A154C51781148002323804370E3
S315000254B0137001294FF0000308BFD17053705DF8D5
S315000254C0044B704709490A88013292B2042A0A80BB
S315000254D0CED90749074A0B701371C9E70A805DF8EE
S315000254E0044B70471F3A002000F00F405C90FF1FEC
S315000254F0203A0020183A002080F00F401890FF1F33
S31500025500034B5878A0F10100B0FA80F040097047C9
