S00C00004E4C33422E7372656309
S31500020000C06F002001040200410402004104020004
S315000200104104020041040200410402000000000003
S31500020020000000000000000000000000953F0300F1
S315000200304104020000000000214003008140030049
S31500020040B5950300BD950300C5950300CD95030044
S31500020050D5950300DD950300E5950300ED950300B4
S31500020060F5950300FD950300059603000D96030022
S31500020070159603001D960300259603002D96030090
S3150002008035960300410402004104020041040200C5
S31500020090410402004104020041040200410402003C
S315000200A04104020041040200F1740300F9740300E2
S315000200B001750300410402004104020041040200EA
S315000200C0410402004104020041040200410402000C
S315000200D041040200410402004104020041040200FC
S315000200E041040200410402004104020041040200EC
S315000200F04104020041040200BD5D0300C55D030028
S3150002010041040200410402004104020041040200CB
S3150002011041040200410402004104020041040200BB
S3150002012041040200410402004104020041040200AB
S31500020130410402004104020041040200410402009B
S31500020140410402004104020041040200410402008B
S31500020150410402004104020041040200410402007B
S31500020160410402004104020041040200410402006B
S315000201704104020041040200358303003D8303006B
S31500020180458303004D8303005583030041040200A7
S31500020190410402005D8303006583030041040200FB
S315000201A06D8303004104020041040200410402007F
S315000201B0758303007D8303004104020085830300E7
S315000201C0410402004104020041040200B57A030020
S315000201D03D7B0300C57B03004D7C03004104020006
S315000201E041040200D57C03005D7D0300E57D03002A
S315000201F06D7E03004104020041040200F57E030005
S315000202007D7F0300058003008D8003004104020008
S3150002021041040200158103009D810300258203002B
S31500020220AD820300410402004104020041040200BF
S31500020230410402004104020041040200410402009A
S31500020240410402004104020041040200410402008A
S31500020250410402004104020041040200410402007A
S31500020260410402004104020041040200410402006A
S31500020270410402004104020041040200410402005A
S31500020280410402004104020041040200410402004A
S31500020290410402004104020041040200410402003A
S315000202A0410402004104020041040200410402002A
S315000202B0410402004104020041040200410402001A
S315000202C0410402004104020041040200410402000A
S315000202D041040200410402004104020041040200FA
S315000202E041040200410402004104020041040200EA
S315000202F041040200410402004104020041040200DA
S3150002030041040200410402004104020041040200C9
S3150002031041040200410402004104020041040200B9
S3150002032041040200410402004104020041040200A9
S315000203304104020041040200410402004104020099
S315000203404104020041040200410402004104020089
S315000203504104020041040200410402004104020079
S315000203604104020041040200410402004104020069
S315000203704104020041040200410402004104020059
S315000203804104020041040200410402004104020049
S315000203904104020041040200410402004104020039
S315000203A04104020041040200410402004104020029
S315000203B04104020041040200410402004104020019
S315000203C04104020041040200410402004104020009
S315000203D041040200410402004104020041040200F9
S315000203E041040200410402004104020041040200E9
S315000203F0410402004104020041040200FFFFFFFF24
S3150002040072B60B490A4A0A4B094C094D084E084F67
S31500020410B846B946BA46BB46BC460648854606486D
S3150002042080470648804762B602F05AF9FEE70000A6
S3150002043000000000C06F00209DBB030019BB030033
S31500020440FFF7FEBF81F0004102E000BF83F00043E8
S3150002045030B54FEA41044FEA430594EA050F08BF57
S3150002046090EA020F1FBF54EA000C55EA020C7FEA1B
S31500020470645C7FEA655C00F0E2804FEA5454D4EB98
S315000204805555B8BF6D420CDD2C4480EA020281EA62
S31500020490030382EA000083EA010180EA020281EA9A
S315000204A00303362D88BF30BD11F0004F4FEA0131EC
S315000204B04FF4801C4CEA113102D0404261EB4101FB
S315000204C013F0004F4FEA03334CEA133302D0524281
S315000204D063EB430394EA050F00F0A780A4F101043D
S315000204E0D5F1200E0DDB02FA0EFC22FA05F2801877
S315000204F041F1000103FA0EF2801843FA05F359415D
S315000205000EE0A5F120050EF1200E012A03FA0EFCDB
S3150002051028BF4CF0020C43FA05F3C01851EBE37105
S3150002052001F0004507D54FF0000EDCF1000C7EEB22
S3150002053000006EEB0101B1F5801F1BD3B1F5001F60
S315000205400CD349085FEA30004FEA3C0C04F101047F
S315000205504FEA445212F5800F80F09A80BCF1004FA8
S3150002056008BF5FEA500C50F1000041EB045141EA2A
S31500020570050130BD5FEA4C0C404141EB010111F42B
S31500020580801FA4F10104E9D191F0000F04BF0146D6
S315000205900020B1FA81F308BF2033A3F10B03B3F1B4
S315000205A020020CDA0C3208DD02F1140CC2F10C0244
S315000205B001FA0CF021FA02F10CE002F11402D8BFA2
S315000205C0C2F1200C01FA02F120FA0CFCDCBF41EA6E
S315000205D00C019040E41AA2BF01EB0451294330BD3D
S315000205E06FEA04041F3C1CDA0C340EDC04F114041A
S315000205F0C4F1200220FA04F001FA02F340EA0300F1
S3150002060021FA04F345EA030130BDC4F10C04C4F136
S31500020610200220FA02F001FA04F340EA0300294616
S3150002062030BD21FA04F0294630BD94F0000F83F460
S31500020630801306BF81F480110134013D4EE77FEA43
S31500020640645C18BF7FEA655C29D094EA050F08BF8F
S3150002065090EA020F05D054EA000C04BF1946104670
S3150002066030BD91EA030F1EBF0021002030BD5FEAB4
S31500020670545C05D14000494128BF41F0004130BDDC
S3150002068014F580043CBF01F5801130BD01F0004530
S3150002069045F0FE4141F470014FF0000030BD7FEAA3
S315000206A0645C1ABF194610467FEA655C1CBF0B469E
S315000206B0024650EA013406BF52EA033591EA030FB5
S315000206C041F4002130BD00BF90F0000F04BF0021AD
S315000206D0704730B54FF4806404F132044FF00005E0
S315000206E04FF0000150E700BF90F0000F04BF002159
S315000206F0704730B54FF4806404F1320410F00045BF
S3150002070048BF40424FF000013EE700BF42004FEAB9
S31500020710E2014FEA31014FEA02701FBF12F07F4336
S3150002072093F07F4F81F06051704792F0000F14BF33
S3150002073093F07F4F704730B54FF4607401F0004577
S3150002074021F0004120E700BF50EA010208BF7047CE
S3150002075030B54FF000050AE050EA010208BF7047C3
S3150002076030B511F0004502D5404261EB41014FF42C
S31500020770806404F132045FEA915C3FF4DCAE4FF030
S3150002078003025FEADC0C18BF03325FEADC0C18BF17
S31500020790033202EBDC02C2F1200300FA03FC20FA68
S315000207A002F001FA03FE40EA0E0021FA02F11444B5
S315000207B0C1E600BF70B54FF0FF0C4CF4E06C1CEACA
S315000207C011541DBF1CEA135594EA0C0F95EA0C0F3F
S315000207D000F0DEF82C4481EA030621EA4C5123EAB2
S315000207E04C5350EA013518BF52EA033541F48011E1
S315000207F043F4801338D0A0FB02CE4FF00005E1FB94
S3150002080002E506F00042E0FB03E54FF00006E1FBDD
S3150002081003569CF0000F18BF4EF0010EA4F1FF0420
S31500020820B6F5007F64F5407404D25FEA4E0E6D4160
S3150002083046EB060642EAC62141EA55514FEAC52071
S3150002084040EA5E504FEACE2EB4F1FD0C88BFBCF5ED
S31500020850E06F1ED8BEF1004F08BF5FEA500E50F19E
S31500020860000041EB045170BD06F0004646EA010164
S3150002087040EA020081EA0301B4EB5C04C2BFD4EB96
S315000208800C0541EA045170BD41F480114FF0000E8F
S31500020890013C00F3AB8014F1360FDEBF002001F0FD
S315000208A0004170BDC4F10004203C35DA0C341BDC77
S315000208B004F11404C4F1200500FA05F320FA04F049
S315000208C001FA05F240EA020001F0004221F000417D
S315000208D010EBD37021FA04F642EB06015EEA430EF0
S315000208E008BF20EAD37070BDC4F10C04C4F1200520
S315000208F000FA04F320FA05F001FA04F240EA0200D3
S3150002090001F0004110EBD37041F100015EEA430EA3
S3150002091008BF20EAD37070BDC4F1200500FA05F2C3
S315000209204EEA020E20FA04F301FA05F243EA020342
S3150002093021FA04F001F0004121FA04F220EA020051
S3150002094000EBD3705EEA430E08BF20EAD37070BD97
S3150002095094F0000F0FD101F00046400041EB010177
S3150002096011F4801F08BF013CF7D041EA060195F059
S31500020970000F18BF704703F00046520043EB030313
S3150002098013F4801F08BF013DF7D043EA0603704700
S3150002099094EA0C0F0CEA135518BF95EA0C0F0CD00B
S315000209A050EA410618BF52EA4306D1D181EA030151
S315000209B001F000414FF0000070BD50EA410606BF4B
S315000209C01046194652EA430619D094EA0C0F02D190
S315000209D050EA013613D195EA0C0F05D152EA0336D5
S315000209E01CBF104619460AD181EA030101F00041F3
S315000209F041F0FE4141F470014FF0000070BD41F03C
S31500020A00FE4141F4780170BD70B54FF0FF0C4CF415
S31500020A10E06C1CEA11541DBF1CEA135594EA0C0F34
S31500020A2095EA0C0F00F0A7F8A4EB050481EA030E81
S31500020A3052EA03354FEA013100F088804FEA033368
S31500020A404FF0805545EA131343EA12634FEA022236
S31500020A5045EA111545EA10654FEA00260EF00041F7
S31500020A609D4208BF964244F1FD0404F5407402D249
S31500020A705B084FEA3202B61A65EB03055B084FEADA
S31500020A8032024FF480104FF4002CB6EB020E75EBD7
S31500020A90030E22BFB61A754640EA0C005B084FEAFF
S31500020AA03202B6EB020E75EB030E22BFB61A75467C
S31500020AB040EA5C005B084FEA3202B6EB020E75EBC7
S31500020AC0030E22BFB61A754640EA9C005B084FEA3F
S31500020AD03202B6EB020E75EB030E22BFB61A75464C
S31500020AE040EADC0055EA060E18D04FEA051545EA3B
S31500020AF016754FEA06164FEAC30343EA52734FEAE4
S31500020B00C2025FEA1C1CC0D111F4801F0BD141EA5C
S31500020B1000014FF000004FF0004CB6E711F4801FC1
S31500020B2004BF01430020B4F1FD0C88BFBCF5E06FA1
S31500020B303FF6AFAEB5EB030C04BFB6EB020C5FEAB1
S31500020B40500C50F1000041EB045170BD0EF0004E06
S31500020B504EEA113114EB5C04C2BFD4EB0C0541EA38
S31500020B60045170BD41F480114FF0000E013C90E635
S31500020B7045EA060E8DE60CEA135594EA0C0F08BFF9
S31500020B8095EA0C0F3FF43BAF94EA0C0F0AD150EAF8
S31500020B9001347FF434AF95EA0C0F7FF425AF10468B
S31500020BA019462CE795EA0C0F06D152EA03353FF4B3
S31500020BB0FDAE1046194622E750EA410618BF52EA30
S31500020BC043067FF4C5AE50EA41047FF40DAF52EA04
S31500020BD043057FF4EBAE12E74FF0FF3C06E000BFA1
S31500020BE04FF0010C02E000BF4FF0010C4DF804CDAE
S31500020BF04FEA410C7FEA6C5C4FEA430C18BF7FEA6E
S31500020C006C5C1BD001B050EA410C0CBF52EA430C9B
S31500020C1091EA030F02BF90EA020F0020704710F11B
S31500020C20000F91EA030F58BF994208BF90422CBFAA
S31500020C30D8176FEAE37040F0010070474FEA410CA3
S31500020C407FEA6C5C02D150EA013C07D14FEA430CC1
S31500020C507FEA6C5CD6D152EA033CD3D05DF8040B32
S31500020C60704700BF8446104662468C461946634664
S31500020C7000E000BF01B5FFF7B7FF002848BF10F13B
S31500020C80000F01BD4DF808EDFFF7F4FF0CBF012080
S31500020C9000205DF808FB00BF4DF808EDFFF7EAFFFC
S31500020CA034BF012000205DF808FB00BF4DF808EDB7
S31500020CB0FFF7E0FF94BF012000205DF808FB00BFAC
S31500020CC04DF808EDFFF7CEFF94BF012000205DF836
S31500020CD008FB00BF4DF808EDFFF7C4FF34BF012043
S31500020CE000205DF808FB00BF4FEA410212F5001230
S31500020CF015D211D56FF47873B3EB625212D94FEA5B
S31500020D00C12343F0004343EA505311F0004F23FA44
S31500020D1002F018BF404270474FF00000704750EA99
S31500020D20013005D111F0004008BF6FF00040704756
S31500020D304FF00000704700BF4A0011D212F50012B0
S31500020D4011D20DD56FF47873B3EB62520ED44FEA1B
S31500020D50C12343F0004343EA505323FA02F070479B
S31500020D604FF00000704750EA013002D14FF0FF30D9
S31500020D7070474FF0000070474FEA4102B2F1E0437C
S31500020D8024BFB3F5001CDCF1FE5C0DD901F0004C6A
S31500020D904FEAC0024CEA5070B2F1004F40EB8300BA
S31500020DA008BF20F00100704711F0804F21D113F1E6
S31500020DB03872BCBF01F00040704741F480114FEA1F
S31500020DC05252C2F11802C2F1200C10FA0CF320FAA8
S31500020DD002F018BF40F001004FEAC1234FEAD323C5
S31500020DE003FA0CFC40EA0C0023FA02F34FEA43032F
S31500020DF0CCE77FEA625307D150EA01331EBF4FF0B8
S31500020E00FE4040F44000704701F0004040F0FE40D2
S31500020E1040F40000704700BF53B94AB9002908BF21
S31500020E2000281CBF4FF0FF314FF0FF3000F03CB8F6
S31500020E3082B0EC462DE9005000F01EF8DDF804E021
S31500020E4002B00CBC704700BF2DE9F041069C154666
S31500020E5006460F46984600F029F805FB01F300FB0B
S31500020E600838A5FB0023B21A434467EB0303C4E91F
S31500020E700023BDE8F08100BF2DE9F041069C9046B3
S31500020E8006460F461D4600F05FF900FB05F5A0FB7E
S31500020E90082308FB0155B21A2B4467EB0303C4E986
S31500020EA00023BDE8F08100BF704700BF00292DE98D
S31500020EB0F043C0F2A6800026002BC0F29C80884632
S31500020EC094469E46154604460F46002B3DD18A425D
S31500020ED059D9B2FA82F33BB1C3F120029F4020FAFC
S31500020EE002F29D4017439C40290C220CB7FBF1FEEF
S31500020EF0A8B201FB1E7742EA074700FB0EF3BB428C
S31500020F000AD97F190EF1FF3280F00581BB4240F209
S31500020F100281AEF1020E2F44FF1AA4B2B7FBF1F31F
S31500020F2001FB137744EA074700FB03F0B84208D9EE
S31500020F307F1903F1FF3280F0F080B84240F2ED8073
S31500020F40023B43EA0E43002203E08B420FD9002202
S31500020F501346341C18BF012460424FF0000565EBAE
S31500020F6045015840514000196941BDE8F083B3FA82
S31500020F7083F2002A40F086808B4202D3844500F237
S31500020F80DB800123E5E712B90123B3FBF2F5B5FADB
S31500020F9085F000283BD1781B4FEA154E1FFA85FCD7
S31500020FA00122B0FBFEF8210C0EFB180741EA0747A7
S31500020FB00CFB08F3BB4207D97F1908F1FF3102D2B5
S31500020FC0BB4200F2BD808846FF1AA4B2B7FBFEF30D
S31500020FD00EFB137744EA07470CFB03FCBC4507D913
S31500020FE07F1903F1FF3102D2BC4500F2A7800B46FE
S31500020FF043EA0843ADE752426FEA060663EB430350
S315000210005DE7404261EB41014FF0FF3654E7C0F124
S31500021010200224FA02F107FA00F385404FEA154E40
S31500021020D7401943B7FBFEF20B0C0EFB12771FFAE1
S3150002103085FC43EA07430CFB02F79F4204FA00F4DD
S3150002104007D95B1902F1FF3074D29F4272D9023A74
S315000210502B44DF1B89B2B7FBFEF80EFB187341EA7D
S3150002106003430CFB08F79F4208D95B1908F1FF31CD
S315000210705CD29F425AD9A8F102082B44D81B48EAEF
S3150002108002428EE7C2F120032CFA03F10EFA02FEA7
S3150002109020FA03F741EA0E0E08FA02F028FA03F1E3
S315000210A04FEA1E453843B1FBF5F8030C05FB181150
S315000210B01FFA8EF743EA014107FB08F38B420CFA4B
S315000210C002FC09D911EB0E0108F1FF3930D28B422D
S315000210D02ED9A8F102087144C91A80B2B1FBF5F300
S315000210E005FB131140EA014107FB03F78F4208D9BA
S315000210F011EB0E0103F1FF3016D28F4214D9023BD7
S31500021100714443EA0843C91BA3FB0C89494509D329
S3150002111005D000221DE79646FEE6134611E79440E7
S315000211204445F6D2013BF4E70346EAE78846A5E7DB
S31500021130C846D1E702468CE713460AE7023B57E761
S31500021140A8F102082F443FE72DE9F041002B44D1D4
S315000211508A42154604464FD9B2FA82F70E464FB175
S31500021160C7F12003B94020FA03F602FA07F50E4347
S3150002117000FA07F44FEA154E230CB6FBFEF0AFB2A7
S315000211800EFB106143EA014307FB00F1994209D9BC
S315000211905B1900F1FF3280F0EC80994240F2E9805F
S315000211A002382B445A1AA4B2B2FBFEF30EFB1322E8
S315000211B044EA024207FB03F7974208D9521903F1A0
S315000211C0FF3180F0D880974240F2D580023B43EA55
S315000211D0004000263146BDE8F0818B4247D8B3FA7B
S315000211E083F6002E48D18B4202D3824200F2CD8092
S315000211F001203146BDE8F08112B90125B5FBF2F5B1
S31500021200B5FA85F8B8F1000F77D14A1B4FEA154EA9
S31500021210AFB20126B2FBFEF0230C0EFB102143EA0D
S31500021220014107FB00F38B4207D9491900F1FF324E
S3150002123002D28B4200F2BA801046C91AA4B2B1FB9E
S31500021240FEF30EFB131144EA014407FB03F7A74220
S3150002125008D9641903F1FF3280F08F80A74240F269
S315000212608C80023B43EA00403146BDE8F08100260D
S3150002127030463146BDE8F081C6F1200422FA04F573
S31500021280B3402B4320FA04FC01FA06F721FA04F5CF
S315000212904FEA134E4CEA0707B5FBFEF8390C0EFB74
S315000212A018551FFA83FC41EA05450CFB08F1A942D1
S315000212B002FA06F204D9ED1808F1FF3467D3A04604
S315000212C06D1ABFB2B5FBFEF40EFB145547EA054193
S315000212D00CFB04FC8C4504D9C91804F1FF355CD318
S315000212E02C4644EA0844CCEB0101A4FB02239942B2
S315000212F048D344D0204600266CE7C8F1200401FA00
S3150002130008F305FA08F520FA04F7E1404FEA154E0C
S315000213101F43B1FBFEF63A0C0EFB16111FFA85FCB3
S3150002132042EA01430CFB06F29A4200FA08F407D994
S315000213305B1906F1FF3137D29A4235D9023E2B4468
S315000213409B1ABFB2B3FBFEF00EFB103347EA034310
S315000213500CFB00F1994207D95B1900F1FF3221D249
S3150002136099421FD902382B445A1A40EA0646674662
S3150002137050E7104616E70B4629E7134672E7B040D8
S315000213809042B7D2601E002624E7304622E7A942E1
S3150002139095D9A8F102081D4492E78C45A0D9023CD2
S315000213A019449EE71046DFE70E46C9E7023829448C
S315000213B043E700BF10B50446042014F023F9206069
S315000213C010BD00BF13F082BA13F038BB10B500216E
S315000213D004460322012013F061FF206010BD00BF06
S315000213E000B54FF0E02383B0D3F8043D0068C3F3A1
S315000213F008034BB102AA002142F8041D14F022FB95
S31500021400002003B05DF804FB0A46194614F0D8F929
S31500021410002003B05DF804FB00B54FF0E02383B073
S31500021420D3F8041D0068C1F3080141B102A90023E3
S3150002143041F8043D14F070F903B05DF804FB0A4666
S315000214400B4613F09DFF03B05DF804FBF0B50F46A3
S3150002145087B0B3B119460C9BC2F10402002505AE52
S3150002146000920196C3F38F0202953B46039513F051
S31500021470CFF918B94FF0FF3007B0F0BD059807B0A5
S31500021480F0BD044D044B2E681979741C31442C604E
S315000214901971DFE7788FFF1F0084FF1FF0B590E810
S315000214A0804000224FF6FF73416AC0F864248281AD
S315000214B00281C2814282826143810382838300F177
S315000214C024058D421CD052B31268AA4218D0BAB172
S315000214D0A2F10803BB42F4D07345F2D012E912001E
S315000214E0216052F8086C014674601B6051F82C4F5B
S315000214F01C60C46A5960416A63608D42C362E2D16C
S315000215001FB13B6943F002033B61BEF1000F05D0F8
S31500021510DEF8103043F00203CEF81030F0BD0A4672
S31500021520D5E700BF00B504460022616A85B02430C3
S31500021530134688420CD100923C483D4B4721042277
S3150002154002F0DAFA0022134604F12C00E16A0FE0F7
S315000215501BB11B68984201D1EDE70B46002BEAD07E
S315000215600132E6E79BB11B68984203D013B1013200
S315000215708842F7D100922D482E4B4821042202F0D0
S31500021580BBFA0022134604F13400616B07E00B46F6
S31500021590ECE79BB11B68984203D013B10132884233
S315000215A0F7D100922148244B4921042202F0A4FAE1
S315000215B00022134604F13C00E16B07E00B46ECE720
S315000215C09BB11B68984203D013B101328842F7D10E
S315000215D000921648194B4A21042202F08DFA002283
S315000215E0134604F14400616C07E00B46ECE7CBB10D
S315000215F01B68984203D013B101328842F7D1009298
S315000216000A480F4B4B21042202F076FA218962899D
S31500021610A38906488DE80E000A4B4E21042202F0E9
S315000216206BFA01E00B46E6E7FEE700BF0CD20300C9
S3150002163038D2030048D203005CD2030074D20300FE
S3150002164088D203009CD20300F0B543898B4285B051
S3150002165006460D462ED05B1A9CB245F25457BC4242
S3150002166028D916F0F3F9230426D533899D422FD0C3
S315000216705B1B9BB2BB4224D8328AAA4225D00021E8
S315000216800A463582F1810846234951F822209A42B8
S3150002169012DCF36B06F13C0199420DD063B11A8B51
S315000216A0AA4217D01B688B42F8D105B0BDE8F040BC
S315000216B016F0C0B916F0CAF905B0BDE8F04016F04A
S315000216C0B9B9328AAA421BB2D9D1F0890246DBE7FE
S315000216D00023D1E759681A680A601C6832466160BD
S315000216E01B6052F8341F19600130716B5A6080B268
S315000216F005284B60F0817363DED90848084B0395D1
S3150002170040F279118DE80B000122064B02F0F4F942
S31500021710F389013BF381CFE7E4D103000CD2030046
S31500021720A4D10300CCD2030083898B4240D0C91ACC
S3150002173089B245F25453994206D8324B428A53F83B
S3150002174022308B4207DD70472E4B428A53F82230F5
S3150002175009B28B42F7DC30B50346044653F82C0F28
S31500021760984285B034D090E80C001A600268536043
S3150002177040600060C32105220223002542750175DF
S315000217800561C382A389C3832246638A52F8341F42
S3150002179001600133616B42609BB2052B4860606356
S315000217A0638207D8A389A3830122A26105B030BD53
S315000217B00021C2E71448154B0293D621144B009020
S315000217C00191012202F098F9638A013B6382E9E7FB
S315000217D0236A202B12DC542012F00EFB22460060F4
S315000217E052F8243F8360236A656A406000F108016B
S315000217F00133C260696061622362BBE72046FFF77C
S3150002180091FE00BFE4D103000CD203007CD5030095
S315000218103CD30300F0B54369002B85B0044659D08A
S315000218204CDB022B4ADC024652F8343F934266D026
S3150002183093E806001160196806464A605B601B6001
S3150002184046F82C3B1D462A69D30712D46B7D2189A3
S315000218502983013BDBB242F00102032B2A6108D83D
S31500021860012202FA03F313F00D0F02D0238901338A
S315000218702381A389E98A013B00226B830A31AA8369
S3150002188005F1140000F05EFDA883E36AB3426DD051
S3150002189093E80600116019684A605B601B60216864
S315000218A0D4F8800400221A61143103F11402636031
S315000218B0402305B0BDE8F04002F020BA434A44484E
S315000218C003934FF423718DE80700424B012202F085
S315000218D013F9FEE7C06A04F12C06864230D090E87E
S315000218E00C001A6002685360406000600023C32245
S315000218F00361206043750275C3822568A3E7064625
S31500021900002346F82C3BC06A864245D090E80C007C
S315000219101A600268536040600060C32508222346AD
S31500021920002702210761206005754175C28253F8BE
S31500021930182F5B68C0F82230C0F81E20256882E79F
S31500021940236A202B3EDC542012F056FA224600600F
S3150002195052F8243F8360236A656A406000F10801F9
S315000219600133C260696061622362BFE7236A202B8A
S3150002197028DC542012F040FA03462146186051F83A
S31500021980242F8260226A656A586001320830D96063
S3150002199068606062226282E7236A202B12DC54208E
S315000219A012F02AFA2246006052F8243F8360236A24
S315000219B0656A406000F108010133C26069606162D4
S315000219C02362AAE72046FFF7ADFD00BFD0D1030090
S315000219D00CD203007CD3030070B505460C4616F004
S315000219E035F8002D3CD12268537D013BDBB2032B37
S315000219F04CD9234653F82C1F1160E16A5360636881
S31500021A004A60E2621A69910755D5224604F1340604
S31500021A1052F82C1F1960E16A5A604B60E362002398
S31500021A20236063602046FFF7F5FE04F27C40FFF771
S31500021A30F3FC16F00BF825681DB16D7D023D18BF4B
S31500021A400125636BB34218BF012515F0F3FFD4F8E5
S31500021A508004294602F058F915F0ECFF002070BD0B
S31500021A6023681A69920731D4626B1A60606BE26A64
S31500021A7004F134065E6004F12C014360636363681B
S31500021A801A60E26A59605360E362C8E7012101FA0B
S31500021A9003F313F00D0FACD013699B07A9D4236C83
S31500021AA05360236C04F13C0111601A60636822647E
S31500021AB01A699107A9D4A26C5A60A26C04F1440176
S31500021AC0196004F134061360A364A8E71A46E36AB0
S31500021AD01360E36A04F12C01516004F134065A6082
S31500021AE0E262CCE72DE9F041044686B015F0AEFF7E
S31500021AF0D4F8680400F066FC002868D0606B04F134
S31500021B00340686420FD070B10122002304E01B681E
S31500021B109E4206D02BB10132511E002BF7D103464D
S31500021B20F9E7022959D8E56B04F13C00A8420FD027
S31500021B3075B10122002304E01B68984206D02BB13E
S31500021B400132511E002BF7D12B46F9E7062944D85C
S31500021B50234653F82C5F9D423FD095E80C001A604D
S31500021B60296800224B606D602D602A6115F062FFC4
S31500021B70D4F8680400F034FC00286BD0D4F868046A
S31500021B8005F11E01362200F02DFC0746D4F8683412
S31500021B90002F77D0184600F023FCBFB2002814BFEE
S31500021BA003220422362F00F27C82C3232B756A7528
S31500021BB0EF8215F04BFFA36B6B60A36BD4F868043E
S31500021BC02E601D60A56300F0FDFB002896D1D4F8B7
S31500021BD06C0400F0F7FB002890D115F02BFFD4F827
S31500021BE0680400F0EFFB00287BD004F1440715F0EF
S31500021BF02DFF07E0234653F82C2F3260E26A73600A
S31500021C005660E662666CBE424ED096E80C001A60DA
S31500021C1032685360337D7660C32B3660EAD1737DBA
S31500021C20052BE7D8F18A3629E4D80023B58BB3838E
S31500021C300A3106F1140000F085FB8542B5837FD098
S31500021C40338B0093B048B14B4FF48371032201F0FA
S31500021C5053FFCFE705F11E084146D4F86C0436223D
S31500021C6000F0C0FBD4F86C340746002892D14146F6
S31500021C70D4F86804362200F0B5FB0746D4F8683477
S31500021C80002F87D1A048A24B00904FF4F871039021
S31500021C90029305930191049101229E4B01F02CFFC0
S31500021CA04FF0FF3019F0A4FF15F0C4FE15F0CEFE7A
S31500021CB025681DB16D7D023D18BF0125626B04F1D9
S31500021CC034039A4218BF012515F0B4FE2946D4F80A
S31500021CD0800402F019F804F27C400521FFF780FB2C
S31500021CE004E7D4F86C0400F06DFB054600287FF487
S31500021CF07CAF636B04F134069E427FF476AFE36BEE
S31500021D0004F13C0898453FF470AF636C04F1440754
S31500021D109F427FF46CAF15F099FEE36B984500F095
S31500021D20F18193E80600116019684A605B60A26B54
S31500021D305A60A26B1E601360A36315F07BFE56E722
S31500021D40757D002D00F0E880022D00F01A81052D28
S31500021D5000F05D81E36B718B618104F13C0083428B
S31500021D6019D0C3B11A8B914203D08A1A120400F118
S31500021D70968093E824002A601A68A64655601B607E
S31500021D805EF82C5F1D60E56AC3F804E06B60E362EF
S31500021D90E36B8342E5D1E56C318B04F14C08454592
S31500021DA022D00022002A00F0A180526842451BD0B0
S31500021DB0D2B1138B99420AD0CB1A9BB245F2545038
S31500021DC0834288BF1BB2002B00F34881EAD1234627
S31500021DD053F82C2F3260E26AE56C73605660E66255
S31500021DE045457FD04DB97DE03560E36CC6F8048089
S31500021DF046455E603546E66474D0A28926E0042B29
S31500021E0052D0012B01D10223636115F01FFEA38973
S31500021E106868296801339AB24FF6FF7E002363820F
S31500021E20A361A281A4F81CE00160296823464860E8
S31500021E302D6053F82C1F2960E16CE06A6B60414506
S31500021E404560E5624DD000294BD00D462B8B9A4258
S31500021E5009D0D31A9BB245F25452934288BF1BB2A1
S31500021E60002B40F0C28015F0E5FD6B7D032BC6D139
S31500021E70EA8AD4F86434D118B1F5826F00F222816D
S31500021E80002AC2D0E018543005F11E0119F0DEFE18
S31500021E90EB8AD4F864241344C4F86434B5E71B68A7
S31500021EA083427FF45EAF76E7D4F8642402B3EB8A0A
S31500021EB063B1A01854301A4605F11E0119F0C6FE88
S31500021EC0EA8AD4F864341A44C4F86424D4F8703420
S31500021ED0D4F8740404F1540198470023C4F8643416
S31500021EE093E7318B2046FFF71FFC8BE6226D5FE7F7
S31500021EF0EA8A002A89D0D4F87034D4F8740405F139
S31500021F001E01984781E700BF0CD2030030D40300BC
S31500021F1058D50300B4D303002046FFF7BFFAD4F81E
S31500021F20680400F049FAD4F86C0400F045FA234636
S31500021F30012253F82C0FC4F864549842626100F0EF
S31500021F409A8090E80C001A60026853604060006054
S31500021F500121082322460026C32505754175C38241
S31500021F60066152F8181F23465268C0F82220C0F8AC
S31500021F701E1053F8342F0260626B43605060606338
S31500021F8040E6D6F81E30002B70D1E36B718B61816F
S31500021F9004F13C00834204F12C0816D0ABB11A8B33
S31500021FA0914202D08A1A12041BD45A681D6815601F
S31500021FB01D686A601B60E26A1A60E26AC3F80480FE
S31500021FC05360E362E36B8342E8D12046318BFFF72D
S31500021FD0ABFBE36A3360E36AC6F804805E60E662DE
S31500021FE010E61B688342D9D1EFE7FFF67AAF95E890
S31500021FF00C001A602A68318B536023462D6053F811
S315000220002C2F2A60E26A6B605560E5626AE7204619
S31500022010F18BFFF719FB718B618104F13C0004F12E
S315000220202C08E36B9842D0D0002BCED01A8B91426B
S3150002203002D08A1A15040DD45A681D6815601D68E7
S315000220406A601B60E26A1A60E26AC3F8048053603F
S31500022050E362E6E71B689842E6D1B6E713683360A7
S31500022060136872605E601660E56CB9E62046718C94
S31500022070FFF7EAFA89E7236A202B40DC542011F0A5
S31500022080BBFE2246006052F8243F8360236A656ADB
S31500022090406000F108010133C26069606162236237
S315000220A056E71948194B0090BA21039002930593FB
S315000220B0019104910122164B01F01EFD4FF0FF30F3
S315000220C019F096FD104C134D134B00944FF4C67144
S315000220D0204601910122029501F00EFD40F28D117A
S315000220E020460094029503940595019104910122DC
S315000220F00A4B01F001FD4FF0FF3019F079FD204641
S31500022100FFF710FA6B68FFDE0CD20300FCD1030066
S31500022110E8D30300B8D1030048D403007CD40300FB
S31500022120014B1868704700BF7C8FFF1F2DE9F04FE7
S31500022130A9B0814640F284408B46079211F05CFEBC
S31500022140002800F0A58040F284420021044619F0DE
S3150002215088FD614B61491C604FF4006000F00CF988
S315000221600121C4F8680400F025F95D494FF40070B6
S3150002217000F002F90121C4F86C0400F01BF904F125
S315000221802C0704F1340604F13C0104F1440204F183
S315000221904C0304F1240807ADA66366632763E7626E
S315000221A038462164E163A26462642365E364C4F889
S315000221B02880C4F824802E460DF19C0A0EE0416860
S315000221C002680A60026846F8040F516056454FF0ED
S315000221D000024060006002611FD0E06A8742EED1D1
S315000221E0226A202A51DC542011F006FE216A006080
S315000221F0626A8260D4F824C046F8040F00F108032C
S315000222004A1C4060C0F80C805645CCF80430226265
S315000222104FF0000263620261DFD1E16A55F8042FD2
S315000222201160E06A5760AA4542601146E262F5D142
S31500022230079BC4F8743419F1000018BF0120C4F8D2
S3150002224070B42849224601F03DFD431C0546C4F8F8
S3150002225080042FD004F27C40FFF7B8F84FF4806375
S315000222602146002200932048204BFFF7EFF8002377
S31500022270C4F8780463612046FFF710F92046FFF799
S31500022280C9FA204629B0BDE8F08F2046FFF74AF981
S315000222901748184B009040F2E221039002930593EF
S315000222A0019104910122144B01F026FC4FF0FF30FC
S315000222B019F09EFC0E480F4B009040F2F22103905B
S315000222C0029305930191049101220C4B01F014FC37
S315000222D0284619F08DFC00BF7C8FFF1FD8D403005F
S315000222E0E8D40300D9190200E51A020048D5030012
S315000222F00CD2030068D50300A8D40300F8D4030067
S315000223002DE9F0410446406928B103F58D7354F86E
S31500022310238012B91046BDE8F08116460F4615F025
S3150002232095FB39463246404600F04CF925460446AE
S3150002233015F080FB05F27C40FFF76EF82046BDE8FB
S31500022340F08100BF99B110B40A4C01444FF6FF72F6
S3150002235010F8013B5340DBB2884234F8133083EA6B
S315000223601222F5D1D04380B25DF8044B704708467D
S31500022370704700BF8CD50300F8B505465C200F46B2
S3150002238011F03AFD0026044606702FB13946402266
S3150002239019F07DFC84F83F60284611F02DFD0023DC
S315000223A02064E3646564A36423656365A3652046CC
S315000223B0F8BD00BF41657047002303658364C364AB
S315000223C083657047C36C026D934206DB9A421DBF5A
S315000223D0406C8018C01A00207047D01A704700BFA0
S315000223E0806C70472DE9F047436DDB0782B00446E7
S315000223F00F4615463ED5866C01966EB9C36C026DC4
S31500022400934202DB04D0416C0A44D31A032B57D8F9
S31500022410002002B0BDE8F087B542D4F84C80E26CE9
S31500022420236D03DB9A4277D0354603E09A4273D096
S31500022430002D72D0236D434580F28680636CC8EB13
S315000224400309A945A8BFA9463FB1216C38464144B4
S315000224504A4619F0FBFB636C4F44C8449845A8BF33
S315000224604FF00008B5EB09096FD1C4F84C80C9EBEF
S31500022470050552E0C66CC26C036D9A42C8D0002DA7
S31500022480C6D0036D9E424ADD436CC6EB0308A845DF
S31500022490A8BFA84639B1016C42463846314419F004
S315000224A0D5FB636C47444644B342D8BF0026B5EB1E
S315000224B0080835D1C8EB0500E66402B0BDE8F0872E
S315000224C0D4F84C80E26C236D9A4278D0236D9845FD
S315000224D062DDD4F844E0D4F84090C8EB0E06042E30
S315000224E0A8BF042601AB09EB08013246B0441846E0
S315000224F0C645D8BF4FF0000819F0A8FBD6F1040272
S3150002250037D1019EC4F84C80002E85D13546284627
S31500022510A66402B0BDE8F0870025761BF7E7A84659
S31500022520236DB342C6DD236DC6EB0309C145A8BFC1
S31500022530C1462FB1216C384631444A4619F086FB12
S315000225404E44C9EB0808B5E7A946236D43458CDD21
S31500022550236DC8EB030ACA45A8BFCA462FB1216C30
S3150002256038464144524619F071FBD044CAEB090978
S315000225707BE7216D4145C4DD216DC8EB010A924519
S31500022580A8BF9246801904D009EB0801524619F0F9
S315000225905DFB019ED044B5E7236D98450ADA226DAC
S315000225A0D4F84090C8EB0202042AA8BF042292463D
S315000225B001A8E9E70026C4F84C803546A7E70026BD
S315000225C03546A4E72DE9F04182B015460192002A6C
S315000225D03BD0436D04460F4613F00101C36C006DF8
S315000225E014BF161D1646834223DB626C16BF801883
S315000225F00023C31A3344934220DA00293FD1266DC1
S31500022600E36C9E4225DA2B46E26CB2420CDDE26CAA
S31500022610206CC6EB02089845A8BF98463044394656
S31500022620424619F013FB46442846266502B0BDE829
S31500022630F081C31A626C33449342DEDBA36D002041
S315000226400133A36502B0BDE8F081104602B0BDE8D1
S31500022650F081636C206CC6EB0308A845A8BFA846A8
S3150002266030444246394619F0F1FA636C46449E42BA
S31500022670A8BF0026B5EB0803D6D04744C4E7D4F872
S315000226805080E36C984516DBC8EB0206042E206CDC
S31500022690A8BF04264044324601A919F0D7FA636C52
S315000226A0B0449845A8BF4FF00008D6F1040314D1F0
S315000226B0C4F85080A3E701A90423E26C4245F7DD82
S315000226C0E66C206CC8EB06069E42A8BF1E46404436
S315000226D0324619F0BBFAB044EAE701AA9119ECE7CF
S315000226E008B505F0ADFC03490B68024A002BFBD086
S315000226F0106808BD808FFF1F10B5094CA4B004A94D
S3150002270020688022FFF76EFE014618B104A801F088
S3150002271061FAF4E74FF0FF310248FEF761FEEEE799
S315000227208C8FFF1F888FFF1F2DE9F04F99B0C24F84
S31500022730DDF890C0C14DDDF888B01CF0400F1E4692
S315000227400CBFB846A846023B1CF0100F18BF2CF06F
S31500022750010C222B0446894600F2A2811CF0010FCD
S3150002276014BF302320231CF002010ED0002AC0F22F
S3150002277091811CF0040F40F039811CF0080104D04D
S3150002278020210BF1FF3B009100E000911CF020019B
S31500022790019106D0102E00F04981082E08BF0BF1D8
S315000227A0FF3B002A3ED130228DF81C200125239AB8
S315000227B0AA42B8BF2A461CF0110F1746C2EB0B0BF2
S315000227C04BD13246DA462E461D46134601E00AF141
S315000227D0FF3ABAF1000F4FF0200033DDD4F8801033
S315000227E04A1C7F2AC4F880206054F0D99449039287
S315000227F00868029190B1CDF814C0049315F026F939
S315000228000299039A08682146FFF7DCFE15F012F9D1
S315000228108C48FEF701FEDDF814C0049B0022C4F8C2
S315000228208020D4E70DF11B0000251146B2FBF6F21B
S3150002283006FB1211013518F8011000F8011F002AD3
S31500022840F3D1B4E71A462B46354616462BEAEB7207
S315000228500BF1FF3B9144C2EB0B0B009A72B1D4F819
S3150002286080209DF8001002F1010ABAF17F0FC4F828
S3150002287080A009F10109A15400F2BD80019A2AB192
S31500022880082E00F0E180102E00F00E811CF0100FD1
S315000228903DD198465E464B46AA46B94600E0013E01
S315000228A0002E40F39880D4F88020551C7F2DC4F862
S315000228B0805004F80280F2D9614F3A686AB10093F7
S315000228C015F0C4F82A4621463868FFF77BFE15F054
S315000228D0B1F85C48FEF7A0FD009B0022C4F88020F8
S315000228E0DDE7DFF85C81D8F8003063B115F0AEF8A9
S315000228F032462146D8F80000FFF764FE15F09AF832
S315000229005048FEF789FD0023C4F88030013FBD42DE
S315000229104FF030020ADAD4F880305E1C7F2EC4F8FB
S31500022920806009F10109E254F0D9DAE70DF11C08D9
S3150002293008EB0507474520D0D4F8803017F8012D5B
S315000229405E1C7F2EC4F88060E254F3D9DFF8F0A053
S31500022950DAF8003063B115F079F832462146DAF832
S315000229600000FFF72FFE15F065F83648FEF754FD16
S3150002297000234745C4F88030DED15E46A84600E013
S31500022980013E002E4FF020021ADDD4F880305F1C83
S315000229907F2FC4F88070E254F2D9294D2B685BB1BF
S315000229A015F054F83A4621462868FFF70BFE15F053
S315000229B041F82448FEF730FD0023C4F88030DFE7F3
S315000229C0BBF1000FACBF08EB0B0008F10000484456
S315000229D019B0BDE8F08F4F4699462BEAEB730BF11F
S315000229E0FF3B55469944C3EB0B0B90E72B210BF1AA
S315000229F0FF3B0091CAE6124A0092116891B1CDF8E6
S31500022A000CC0029315F022F8009A2146106852462D
S31500022A10FFF7D8FD15F00EF80A48FEF7FDFCDDF8C3
S31500022A200CC0029B0022C4F8802027E7ABF1020B00
S31500022A30002A7FF4F7AEB6E68CD70300B4D70300BC
S31500022A408C8FFF1F888FFF1FD4F88020561C3021E1
S31500022A507F2EC4F8806009F10109A1547FF616AFF2
S31500022A60DFF8B080D8F8002082B18DE8081014F0A3
S31500022A70EDFF32462146D8F80000FFF7A3FD14F019
S31500022A80D9FF2348FEF7C8FC9DE808100022C4F8C7
S31500022A908020FBE62D2152420BF1FF3B009175E6A9
S31500022AA0002019B0BDE8F08FD4F8806006F1010A63
S31500022AB03022BAF17F0FC4F880A0A2550CD8023694
S31500022AC098F82120C4F88060802E09F1020904F8E2
S31500022AD00A207FF4DBAEC3E70E4E32687AB18DE888
S31500022AE0081014F0B3FF524621463068FFF76AFD1C
S31500022AF014F0A0FF0648FEF78FFC9DE8081098F830
S31500022B0021202270012209F10209C4F88020BDE6C3
S31500022B10888FFF1F8C8FFF1F2DE9F04FDFF8B0A2C1
S31500022B20A34EA44FAFB04FF0460C06920793DAE9D4
S31500022B3000234FF0020E80460D464FF03A0900F18F
S31500022B400B010DF1360036687F688DF834C0CDE989
S31500022B500423CDF8B4E08DF8359019F088F8404694
S31500022B6019F08EF82D9B0B3B1844742802DD2FB00A
S31500022B70BDE8F08F2EAB034442F20F724C214FF0A8
S31500022B80200E954203F8831C03F8829C03F884EC1A
S31500022B9000F1030100F37084B5F57A7F80F2978124
S31500022BA0632D00F38785092D00F34387824AEB17CD
S31500022BB082FB0542C3EBA20303EB83032EAA114455
S31500022BC0A5EB4303021D3033089201F8843C1446F8
S31500022BD0DDE90423794D0132A5FB0616A7FB02891E
S31500022BE043F10003B6092EAAB8EB060807FB0399C0
S31500022BF002EB040669F100094FF0200B64A3D3E946
S31500022C0000234046494606F884BCFEF705F96C4A9D
S31500022C100023C7B249464046FEF7FEF8694A00233A
S31500022C205FFA80FA49464046FEF7F6F8C0B24FF41C
S31500022C307A720023099049464046FEF7EDF856A3FC
S31500022C40D3E900233A2106F8811C4B4521464FF071
S31500022C50540E01F1040108BF424506F883BC1FFA6F
S31500022C6080FC06F882EC0491C0F041834CA3D3E9C0
S31500022C7000234B4508BF4245C0F088844AA3D3E9E6
S31500022C8000234B4508BF4245C0F04C854E4A4F498A
S31500022C9000234B4508BF4245C0F08286A5FB0C3295
S31500022CA0A1FB0C31D20890B24909A5FB0137A5FB5D
S31500022CB00043DB08FD08049C05EB850503EB830353
S31500022CC002EB82022EAFA0EB4303A1EB45013C448B
S31500022CD0ACEB4202089801F1300503F1300102F132
S31500022CE0300304F8845C073006F87F1C06F87E3C45
S31500022CF02EAB034403306D25732120227F282D90AD
S31500022D0003F8845C03F8831C03F8822C3FF72FAF89
S31500022D10069C2378002B00F03C810026079F0FE0DB
S31500022D202D9A2EA9551C11447F2D01F8843C2D9510
S31500022D3000F2A382637801360134002B00F0288169
S31500022D40252BEDD100206378A3F12002611C102A05
S31500022D5040D8DFE802F0193F3F153F3F3F3F3F3F74
S31500022D603F113F0D3F3F090040F001000C46EAE7E4
S31500022D7040F010000C46E6E740F004000C46E2E79D
S31500022D8040F020000C46DEE740F008000C46DAE789
S31500022D9000A493D600000000FF5FD71D14000000B8
S31500022DA0FFA393D600000000FF86930300000000F5
S31500022DB024700340E48DFF1F67666666CDCCCCCCDB
S31500022DC00087930340420F003F420F001F85EB51DD
S31500022DD0E0350020A3F13002092A00F267820C4690
S31500022DE0002505EB850503EB450514F8013FA3F124
S31500022DF03002092AA5F13005F3D92E2B00F05F82A5
S31500022E004FF0FF3E03F0FB02682A00F04B82712B63
S31500022E1000F048824FF0FF31A3F12502532A00F257
S31500022E20FC81DFE812F06601FA01FA01FA01FA0101
S31500022E30FA01FA01FA01FA01FA01FA01FA01FA01B2
S31500022E40FA01FA01FA01FA01FA01FA01FA01FA01A2
S31500022E50FA01FA01FA01FA01FA01FA01FA01FA0192
S31500022E60FA01FA01FA01FA01FA01FA01FA01FA0182
S31500022E70FA01FA01FA01FA01FA01FA01FA01FA0172
S31500022E80FA01FA01FA01FA01FA01FA019D00FA01C0
S31500022E90FA01FA01FA01FA01FA01FA01FA01FA0152
S31500022EA0FA012B012701FA01DF00FA01FA012701D3
S31500022EB0FA01FA01FA01FA01DA00D800E701FA0189
S31500022EC0FA018301FA018101FA01FA019F00DFF892
S31500022ED01C93C14ADFF818E34FEAE57C89FB0549F2
S31500022EE082FB05488EFB054ECCEBA919CCEBA80854
S31500022EF082FB094ACCEB6E1E4FEAE97CCCEBAA0CAC
S31500022F0082FB0E4A82FB082B4FEAEE72C2EBAA0A3A
S31500022F104FEAE872C2EBAB022EAC0CEB8C0C0AEB5E
S31500022F208A0A02EB820208EB880B2144A9EB4C0CBD
S31500022F30AEEB4A0AA8EB4202A5EB4B0507300CF1B1
S31500022F40300C0AF1300A3032303501F884CC089060
S31500022F5003F880AC03F87F2C03F87E5C044637E660
S31500022F6040F0400010236C2900F09A83682900F093
S31500022F709A833A680437029031468DE820400DA8BC
S31500022F80FFF7D2FB064663780134002B7FF4D8AEF6
S31500022F902D987D2800F3CE822EAB0344841C0D218E
S31500022FA00A222D9403F8841C03F8832C002C3FF488
S31500022FB0DEAD8A4D2B68002B3FF4D9AD14F046FDE9
S31500022FC022460DA92868FFF7FDFA14F033FD84485E
S31500022FD0FEF722FACBE50823C5E73B681E600437F5
S31500022FE06378A9E6073727F00707D7E90089494634
S31500022FF04046FDF779FE02254FF0FF330246314681
S315000230000093019302950A2382460DA8FFF78CFBD3
S315000230102D9D2EAB2B4401352E227F2D07F108075D
S3150002302006462D9503F8842C00F237845046FDF7A8
S315000230305BFB02460B4640464946FDF707FA00226D
S31500023040684BFDF7B7FBFDF74FFE4FF0FF354FF02C
S31500023050030E80EAE0720123A2EBE072314602938C
S315000230600DA80A23CDF800E00195FFF75DFB637812
S31500023070064661E640F002000A2374E7C10640F103
S31500023080BE832D9B5A1C11462EA803447F293878ED
S315000230902D9203F8840C07F1040700F20885013D1E
S315000230A0002D06F10106A84604DC6CE7B8F101081A
S315000230B000F072842EAB1344013220217F2A2D9216
S315000230C003F8841CF2D9DFF814910492D9F800307F
S315000230D063B114F0BBFC049AD9F800000DA9FFF7FE
S315000230E071FA14F0A7FC3E48FEF796F900222D92DB
S315000230F0DCE72D9A2EAB551C13447F2D4FF025028B
S3150002310006F101062D9503F8842C7FF63CAFDFF815
S31500023110CC80D8F80030002B00F0AB8014F096FC7F
S31500023120D8F800002A469CE00A231CE7D7F800A03C
S315000231302D4B07F10408BAF1000F08BF9A46BEF1FB
S31500023140000F00F0F1839AF80030002B00F0EC83B8
S315000231500AEB0E020AF1010304E019780133002991
S3150002316000F0A18493429946F7D1CAEB0309C2063D
S3150002317000F1AA834D4505F1FF3C40F3A4832D9F40
S3150002318009F1FF33E34604E00BF1FF3B9B4500F0F8
S3150002319082842EAA3A44013720217F2F2D9702F8E6
S315000231A0841CF1D90D4A0492116891B10793CDF8A6
S315000231B018C014F04BFC049A0DA910683A46FFF7A2
S315000231C001FA14F037FC0648FEF726F9079BDDF8EC
S315000231D018C000272D97D7E7676666668C8FFF1F94
S315000231E0888FFF1F00408F40DCD70300D34D62104B
S315000231F01F85EB516B1C04BF40F0010008253A689D
S315000232000290314610230095CDF804E00DA8FFF791
S315000232108BFA0437064663788EE52D9A11462EAA56
S315000232204D1C0A4425207F2D2D9502F8840C00F2B0
S315000232301683002B00F0E0822EAA01F10208154443
S31500023240B8F1800F05F8843CCDF8B48006F1020689
S315000232507FF499AEC64D2B685BB114F0F7FB286874
S3150002326042460DA9FFF7AEF914F0E4FBC148FEF79A
S31500023270D3F800232D9363785EE5DFF8F482D8F85D
S31500023280003063B114F0E2FB2A460DA9D8F800001B
S31500023290FFF798F914F0CEFBB648FEF7BDF8002307
S315000232A02D9347E5194601342378B5E52A2B00F01C
S315000232B04B812E2B0C464FF0FF357FF4A1AD637880
S315000232C0A3F13002092A04F1010100F24A810C46F7
S315000232D04FF0000E0EEB8E0203EB420214F8013F92
S315000232E0A3F130010929A2F1300EF3D98AE5A24AE7
S315000232F0CDF828C0404649461423FDF78DFDC0B2DD
S31500023300A0EB8009099BDDF828C007EBC909A7EBEA
S3150002331007170AEB8708AAEB0A1A03EB8A0B974BE5
S31500023320A5FB002EA3FB0C235FFA8BFB4FEADE0EF6
S315000233305FFA89F95FFA88F85B09A5FB0927A5FBFD
S3150002334008210993A5FB0B42A5FB0C430EEB8E0449
S315000233500A94049C5FFA8EFA0DF1B80E74440B942B
S315000233600A9CFF08A0EB44000446C908A5FB0AE034
S315000233705FFA87FE07EB8707D208A9EB4709C00861
S31500023380CFB201EB810100EB8000A8EB4108D1B27C
S3150002339002EB8202DB08AAEB400AABEB420204F123
S315000233A0300B0B9C04910AF1300A99B203EB8303AA
S315000233B004F884ACACEB4303A5FB0ECA4FEADA0A67
S315000233C00AEB8A0AAEEB4A0EA5FB07CA049C0898CA
S315000233D006F87FBC4FEADA0A0AEB8A0AA7EB4A0723
S315000233E0A5FB04CA4FEADA0A0AEB8A0AA4EB4A0CDC
S315000233F0099C30330A93A5FB043AA5FB01354FEA33
S31500023400DA0AED080AEB8A0A05EB850509F13009A5
S3150002341008F13008A1EB45050EF1300EA4EB4A0A7D
S31500023420303230370CF1300C0AF1300A3035642173
S3150002343006F87C9C06F87DEC4FF068094FF06D0E9D
S3150002344006F8798C9DF8283006F87A7C4FF07308D6
S31500023450133006F8762C06F877CC06F874AC06F824
S31500023460735C06F8723C06F87E1C06F87B9C06F82E
S3150002347078EC06F8758C3BE4414ADFF80881DFF800
S3150002348008C1DFF8F8E082FB0529EA17C2EB293901
S3150002349088FB094B4FEAE97A8CFB054C8EFB054EFD
S315000234A0CAEBAB0A88FB054BC2EBAC1CC2EB6E1E29
S315000234B0C2EBAB0288FB024B2EAC61180C46D1174D
S315000234C0C1EBAB0B0BEB8B0BA2EB4B0B0AEB8A0A9A
S315000234D002EB8202A9EB4A0AA5EB420588FB0C190C
S315000234E04FEAEE7288FB0E184FEAEC71C2EBA8089F
S315000234F0C1EBA90101EB810108EB8808ACEB4101A4
S31500023500AEEB480E00F108020AF1300A0BF1300B5D
S31500023510303530310EF1300E089204F884AC03F8DF
S315000235207EBC03F87D5C03F8801C03F87FEC089CE4
S31500023530FFF74EBB80200D220A238DF8B2208DF8AC
S31500023540B3302D90044634E53D68A378002D04F18E
S31500023550020207F10407BCBF6D4240F01000144698
S315000235604BE42A2B00F087820C464FF0000E49E40A
S315000235708C8FFF1F888FFF1F0060D71D1F85EB51A1
S31500023580AD8BDB6867666666D34D6210A7EB0712E2
S31500023590AAEB0A130AEB820A099A02EB830BCE4BB9
S315000235A0A5FB0720A3FB0C235FFA8AFA5FFA8BFBC3
S315000235B0A5FB0A214FEA5318A5FB0B42A5FB0C43B8
S315000235C0C008049C5FFA80FE0DF1B80900EB80008A
S315000235D04C44A7EB4009A5FB0E70C008C90800EBD6
S315000235E08000D208AEEB400EC8B201EB8101DB08C7
S315000235F0AAEB410AD1B202EB8202ABEB420B9AB2C0
S3150002360003EB8303ACEB430CA5FB0073DB0803EB74
S315000236108303A0EB4300A5FB0173DB0803EB8303E3
S31500023620A1EB4301A5FB0837A5FB0235FF08ED0810
S3150002363007EB870705EB8505A8EB4707A2EB4505D0
S315000236400EF1300E00F13003089804F884EC09F10B
S3150002365030090AF1300A0BF1300B30313037303590
S315000236600CF1300C4FF0680E6D224FF073081030DB
S3150002367006F87F9C06F87CAC06F87D3C06F879BC19
S3150002368006F87A1C06F8777C06F8765C06F875CC9E
S3150002369006F87EEC06F87B2C06F8788CFFF728BB3A
S315000236A03A68043767E43A88391D870748BF12B279
S315000236B00F4660E4894ADFF820C282FB05488CFB8C
S315000236C0054C4FEAE57ECEEB6C1CCEEBA80E82FBD8
S315000236D00C4A4FEAEC7882FB0E294FEAEE72C8EBEF
S315000236E0AA08C2EBA9022EAC08EB880902EB8202F9
S315000236F00EEB8E082144AEEB4202ACEB490CA5EB75
S31500023700480502F1300E06300CF1300C05F130029C
S3150002371001F884CC089003F880EC03F87F2C044669
S31500023720FFF756BA099B6C4FAAEB0A1103EB81010C
S31500023730C9B2A5FB0A32A5FB0103A5FB0C40C008D2
S315000237401FFA80F900EB8000A7FB0C480446049898
S31500023750D2080DF1B80B5FFA82FE584402EB8202E0
S315000237608346AAEB4202A5FB0EA0DB08C00800EBCB
S315000237708000DFB203EB8303AEEB400EA1EB430303
S31500023780A5FB0701C9084FEA581801EB8101A7EB0F
S315000237904107A5FB0801A5FB0950C908C00801EBB2
S315000237A0810100EB8000A8EB4108A9EB4009ACEBD4
S315000237B04405089830320EF1300E3033303708F1B6
S315000237C0300809F1300930356D214FF0730C0BF8D2
S315000237D084EC0D3006F87F2C06F87C3C06F87D7CDE
S315000237E006F87A8C06F8799C06F8785C06F87E1C50
S315000237F006F87BCCFFF77CBA2846FFF7CABB013D29
S31500023800002DA8462D9B06DC6BE10B461146B8F14E
S31500023810010800F03C812EAA1A44591C20207F2957
S3150002382002F8840C2D9103F10202EED9DFF8B4906E
S315000238300491D9F800306BB114F008F90499D9F85B
S3150002384000000A460DA9FEF7BDFE14F0F3F824485F
S31500023850FDF7E2FD002301212D930A46D7E7DFF8A3
S315000238608480D8F800206AB114F0F0F82A460DA92F
S31500023870D8F80000FEF7A6FE14F0DCF81848FDF7AB
S31500023880CBFD2378002B00F0298101228DF83430FC
S315000238902D9202366378FFF74FBADFF848B0DBF8AD
S315000238A0003063B114F0D2F82A460DA9DBF8000005
S315000238B0FEF788FE14F0BEF80948FDF7ADFD0023B9
S315000238C02D93FFF7B3BB6546B9F1000F32DD2D9F8D
S315000238D00AEB090B0AE000BF1F85EB5167666666B5
S315000238E0888FFF1F8C8FFF1FDA4553D02EAB3B44C8
S315000238F001371AF8012B03F8842C7F2F2D97F3D961
S315000239007A4B04931A6862B114F0A0F8049B3A4603
S3150002391018680DA9FEF756FE14F08CF87448FDF7E8
S315000239207BFD00272D97DFE710F010093FF422AC4C
S315000239304FF000094D4505F1FF3A27DD2D9F09F1AC
S31500023940FF3B03E00AF1FF3ADA451CD02EAB3B44BB
S31500023950013720227F2F2D9703F8842CF2D9634B4F
S3150002396004931A6862B114F071F8049B3A46186817
S315000239700DA9FEF727FE14F05DF85D48FDF74CFD34
S3150002398000272D97DEE7C9EB05052E4447466378E7
S31500023990FFF7D2B94E44CDE72E446378FFF7CCB990
S315000239A0099C2346A5FB0332A1FB0C18A5FB0C03BD
S315000239B0D208D7B2DB084FEA5818A5FB071E1FFA32
S315000239C083F9A5FB08104FEADE0EA5FB095103EBAE
S315000239D0830BC008049B0EEB8E05C9080DF1B80EC9
S315000239E000EB80007344A8EB400002EB820201EB7D
S315000239F081019A46A7EB450500F1300EA4EB42027F
S31500023A00A9EB4101ACEB4B0308983032303530312B
S31500023A10303373270AF8845C0A3006F87F2C06F8DE
S31500023A207DEC06F87C1C06F87B3C06F87E7CFFF7EC
S31500023A305FB9DFF8C0E0EA178EFB054CC2EBAC02B9
S31500023A408EFB024C4FEAE27ECEEBAC0E2EAC02EBC4
S31500023A50820C0EEB8E0E2144A2EB4E02A5EB4C0518
S31500023A6005303032303501F8842C089003F8805C3A
S31500023A700446FFF7ADB8D7F800E0A378A21CBEF162
S31500023A80000F07F104071446BFF6BCA96DE52E44E4
S31500023A900025FFF7F9BAC5EB0C0CC9EB05052E4458
S31500023AA00CEB090510E7CAEB0909FFF760BBDFF863
S31500023AB03C800492D8F8003063B113F0C7FF049A31
S31500023AC0D8F800000DA9FEF77DFD13F0B3FF0848F4
S31500023AD0FDF7A2FC00222D92FFF7E1BA1846FFF786
S31500023AE058BA5A1C1146FFF7CFBA00BF8C8FFF1F78
S31500023AF0888FFF1F6766666608B400B582B003AB9F
S31500023B0053F8042B0193FFF707F802B05DF804EBB4
S31500023B1001B0704700B50D4983B04FF40070FEF74F
S31500023B202BFC0B4B18600B48FDF750FC4FF48063DF
S31500023B3000930021084B09480322FDF787FC084B36
S31500023B401860012003B05DF804FB00BF00D8030033
S31500023B508C8FFF1F888FFF1F0CD80300F9260200E7
S31500023B60848FFF1F0020014912F0E2B880FF030094
S31500023B70002012F00FB900BF002012F0E7B800BF14
S31500023B8008B513F063FF054B054A5A601A6842F0FE
S31500023B9080021A60BDE8084013F04CBF00200540C1
S31500023BA020C528D908B50749074A002012F000FDAA
S31500023BB04FF4FA720020054912F02CFC044B012244
S31500023BC01A7008BD7444002090FF03004836002096
S31500023BD0908FFF1F044B1B780A4603B970470146B4
S31500023BE0002012F0D3BB00BF908FFF1F08B5012142
S31500023BF0002013F0EDFE0449D1E90023013243F11E
S31500023C000003C1E9002308BDE035002008B5002005
S31500023C10022113F0DDFEBDE8084007F05FBA00BFDF
S31500023C20F8B5144F144E154D154C164900230022B3
S31500023C300020C7E90023C6E90023C5E90023C4E939
S31500023C40002313F087FD002001460F4A13F0B6FD4C
S31500023C5030200E49002213F0C1FE01210C4A002039
S31500023C6013F0ACFD31200B490022BDE8F84013F0F9
S31500023C70B5BE00BF1036002020360020E0350020F9
S31500023C8008360020E8FF0300E48DFF1FED3B02002B
S31500023C90D0FF03000D3C020008B50020012113F0FD
S31500023CA08FFE00200221BDE8084013F089BE00BF46
S31500023CB0136833B111B1516801201847084651689B
S31500023CC018477047F8B50A4F0A4D4601BC19B95153
S31500023CD062600FCD022704F10C050FC5A76004F13F
S31500023CE00C0238460449E46112F0D6FD2046F8BDBE
S31500023CF0948FFF1F9CFF0300B844002008B580681C
S31500023D009BB212F043FE08BD09B900F0E3BD00F014
S31500023D10D9BD00BF2DE9F04F444C45492246022346
S31500023D2083B0002013F0D4F92388424AC3F3C401B6
S31500023D30C3F34000032903F001031170507093701E
S31500023D4005D000231846009303B0BDE8F08FDFF8D4
S31500023D50F8C0DFF8F8A0DFF8F8B001230093654653
S31500023D6035F8024BA30B012B0AD0334B0AF1020A98
S31500023D709A450BF1020BF3D1009803B0BDE8F08F20
S31500023D8004F4785646F480765946524602230020B9
S31500023D90ABF80060DFF8BC8013F09AF9274B28488D
S31500023DA05F682849D8E9002303680195A1FB03133C
S31500023DB007FB0272A2EB93120021A14640F22136C2
S31500023DC014460D4601E0013E1CD01D4BDFF874C0BF
S31500023DD0D8E90001D3F800E00130ACFB0ECE41F188
S31500023DE00001A0FB07234FEA9E1EB2EB0E0207FB61
S31500023DF0013363F10003121B63EB0503002B08BFBB
S31500023E000A2AE0D3BAF80030019D4C465C4014F011
S31500023E10FF0FAAD0BBF80030B3F5D85FA5D0B3F533
S31500023E20E85F009B18BF002300939EE70C90FF1FDC
S31500023E3034D80300E48FFF1FF48FFF1FE48DFF1FAA
S31500023E4024700340CDCCCCCC14D80300E88FFF1FDE
S31500023E501490FF1FE03500202DE9F04F964B974A4C
S31500023E60DFF870A2DFF870B285B0994690464946EF
S31500023E7052460223002013F02BF9914B9149D3F8B5
S31500023E8004E0914CDBE900230B68CDF808900EFBA9
S31500023E9002E2A4FB0334A2EB9414002540F2213C77
S31500023EA026462F4602E0BCF1010C18D0854B864D02
S31500023EB0DBE900011C680130A5FB045441F1000155
S31500023EC0A0FB0E23A409121B0EFB013363F10003B0
S31500023ED0921B63EB0703002B08BF0A2AE3D339F8C8
S31500023EE0023B01939B0B012B38D07649764CDBE9DA
S31500023EF000230B680EFB02E2A4FB0334A2EB94142C
S31500023F00002540F2213C02E0BCF1010C18D06D4BB9
S31500023F106D48DBE9006719680136A0FB010147F12C
S31500023F200007AEFB06238909521A0EFB073363F11B
S31500023F300003121B63EB0503002B08BF0A2AE3D317
S31500023F40624B0AF1020A9A4508F102088FD1604AC9
S31500023F5013780133137005B0BDE8F08F019B03F4AB
S31500023F60785444F480744146A8F80040524602232D
S31500023F70002013F0ADF8524B5248D3F804E05249F0
S31500023F80DBE9002303680EFB02E2A1FB0313A2EBAB
S31500023F90931300214F46C44640F22134984689467F
S31500023FA001E0013C19D0474B474EDBE900011D6891
S31500023FB00130A6FB056541F10001A0FB0E23AD0908
S31500023FC0521B0EFB013363F10003B2EB080263EBF3
S31500023FD00903002B08BF0A2AE3D3BAF80030019A74
S31500023FE0534013F0FF0FB946E0463FF47EAFB8F8F0
S31500023FF00030B3F5D85F3FF478AFB3F5E85F3FF42E
S3150002400074AF0A23CDF80C90994602992E4C52466B
S315000240100223002013F05CF8294B2A49D3F804C086
S31500024020DBE900230B680CFB02C2A4FB0334A2EB00
S315000240309414002540F2213E26462F4602E0BEF1A8
S31500024040010E18D01F4B204DDBE900011C68013020
S31500024050A5FB045441F10001A0FB0C23A409121B89
S315000240600CFB013363F10003921B63EB0703002B86
S3150002407008BF0A2AE3D3524602230020414613F020
S3150002408027F8BAF80030019A534013F0FF0F0CD00C
S3150002409009F1FF3919F0FF0907D0B8F80030B3F576
S315000240A0D85F02D0B3F5E85FAFD1054BDDF80C90CF
S315000240B0D3F804E019E700BF14D803001490FF1FD9
S315000240C0E48DFF1F24700340CDCCCCCCF48FFF1FB0
S315000240D01290FF1FE88FFF1FE03500202DE9F04FF9
S315000240E0B349B44ADFF8ECA2B34E85B0002012F011
S315000240F041FFB24BB2495868DAE900230B6800FB6C
S315000241000202A6FB0336A2EB9616002740F22134E2
S3150002411002E0013C00F0A981A94BA74DDAE900892A
S31500024120196818F10108A5FB015149F10009A8FB1C
S3150002413000238909521A00FB093363F10003921B1B
S3150002414063EB0703002B08BF0A2AE2D3DFF8889243
S31500024150DFF888B2CDF800900024009B0BEB040236
S3150002416019190020022312F0B3FF944B94485D689C
S315000241709149DAE90023036805FB0252A1FB0338E1
S31500024180A2EB98184FF0000940F2213001E0013805
S315000241901AD08B4BDFF820E2DAE90067196801369C
S315000241A0AEFB01E147F10007A6FB05238909521A76
S315000241B005FB073363F10003B2EB080263EB090365
S315000241C0002B08BF0A2AE2D30234042CC5D17D4A49
S315000241D07D4B0092DFF808B27C4A02929946494624
S315000241E05A460223002012F073FF744B7449D3F827
S315000241F004E0714CDAE900230B68CDF804900EFB5B
S3150002420002E2A4FB0334A2EB9414002540F2213C03
S3150002421026462F4602E0BCF1010C18D0684B6648D0
S31500024220DAE9004519680134A0FB010145F10005F0
S31500024230A4FB0E238909521A0EFB053363F1000310
S31500024240921B63EB0703002B08BF0A2AE3D339F854
S31500024250023B9A0B012A3AD05949574CDAE9002314
S315000242600B680EFB02E2A4FB0334A2EB94140025B6
S3150002427040F2213C26462F4602E0BCF1010C18D042
S315000242804F4B4D48DAE9004519680134A0FB01019C
S3150002429045F10005AEFB04238909521A0EFB0533CC
S315000242A063F10003921B63EB0703002B08BF0A2A84
S315000242B0E3D3009B02330093029B01330293444BE8
S315000242C00BF1020B9B458AD105B0BDE8F08F009D2C
S315000242D003F4785343F4807429462C805A46022309
S315000242E0002012F0F5FE354B3548D3F804E032498A
S315000242F0DAE9002303680EFB02E2A1FB0313A2EB39
S31500024300931300214D4640F221349846894601E036
S31500024310013C19D02A4B2848DAE9006719680136A8
S31500024320A0FB010147F10007A6FB0E238909521AD9
S315000243300EFB073363F10003B2EB080263EB0903DA
S31500024340002B08BF0A2AE3D335F8022CBBF800304B
S31500024350534013F0FF0FA9463FF47EAF009B1B8824
S31500024360B3F5D85F3FF478AFB3F5E85F3FF474AFC7
S31500024370CDF80C90DDF808904FF0FE0801990E4C2E
S315000243805A460223002012F0A3FE0C4B0C49D3F826
S3150002439004C0DAE900230B680CFB02C2A4FB033457
S315000243A0A2EB9414002540F2213E26462F461CE03D
S315000243B0F0440020B0FF0300CDCCCCCCE48DFF1F2F
S315000243C0247003401490FF1F38D80300D48FFF1FB8
S315000243D00490FF1FE035002054D803000890FF1F09
S315000243E0E88FFF1FBEF1010E18D0234B234DDAE9E9
S315000243F000011C680130A5FB045441F10001A0FB39
S315000244000C23A409121B0CFB013363F10003921B5C
S3150002441063EB0703002B08BF0A2AE3D300995A4627
S315000244200223002012F054FE039B99F8002033F871
S31500024430021CBBF800304B40013213F0FF0F89F823
S3150002444000200CD008F1FF3818F0FF0807D0009BB7
S315000244501B88B3F5D85F02D0B3F5E85F8ED1084B5F
S31500024460DDF80C90D3F804E0F6E6DFF81890DFF8F2
S3150002447018B0CDF8009070E624700340CDCCCCCCB9
S31500024480E48DFF1F54D803000890FF1F2DE9F04F5B
S3150002449085B09B4A9B4B0092DFF880B29A4ADFF8BE
S315000244A080A20292994649465A460223002012F0F9
S315000244B00FFE964B9649D3F804E0964CDAE90023B0
S315000244C00B68CDF804900EFB02E2A4FB0334A2EBC8
S315000244D09414002540F2213C26462F4602E0BCF108
S315000244E0010C18D08A4B8B48DAE900451968013469
S315000244F0A0FB010145F10005A4FB0E238909521A0E
S315000245000EFB053363F10003921B63EB0703002BDB
S3150002451008BF0A2AE3D339F8023B9A0B012A3AD09A
S315000245207B497C4CDAE900230B680EFB02E2A4FB12
S315000245300334A2EB9414002540F2213C26462F4672
S3150002454002E0BCF1010C18D0714B7248DAE9004561
S3150002455019680134A0FB010145F10005AEFB0423F5
S315000245608909521A0EFB053363F10003921B63EBB2
S315000245700703002B08BF0A2AE3D3009B02330093EA
S31500024580029B01330293644B0BF1020B9B458AD1CA
S3150002459005B0BDE8F08F009D03F4785343F48074B0
S315000245A029462C805A460223002012F091FD574BD1
S315000245B05748D3F804E05749DAE9002303680EFBAB
S315000245C002E2A1FB0313A2EB931300214D4640F234
S315000245D021349846894601E0013C19D04C4B4D489E
S315000245E0DAE9006719680136A0FB010147F1000705
S315000245F0A6FB0E238909521A0EFB073363F1000349
S31500024600B2EB080263EB0903002B08BF0A2AE3D3C5
S3150002461035F8022CBBF80030534013F0FF0FA946C1
S315000246203FF47EAF009B1B88B3F5D85F3FF478AFAB
S31500024630B3F5E85F3FF474AFCDF80C90DDF808905F
S315000246404FF0FE080199334C5A460223002012F01D
S315000246503FFD2E4B2E49D3F804C0DAE900230B683E
S315000246600CFB02C2A4FB0334A2EB9414002540F215
S31500024670213E26462F4602E0BEF1010E18D0244BFB
S31500024680244DDAE900011C680130A5FB045441F10E
S315000246900001A0FB0C23A409121B0CFB013363F1DE
S315000246A00003921B63EB0703002B08BF0A2AE3D31E
S315000246B000995A460223002012F00AFD039B99F83C
S315000246C0002033F8021CBBF800304B40013213F0D5
S315000246D0FF0F89F800200CD008F1FF3818F0FF0808
S315000246E007D0009B1B88B3F5D85F02D0B3F5E85F0D
S315000246F0A8D1064BDDF80C90D3F804E010E700BF12
S315000247001490FF1F24D80300D48FFF1FE48DFF1FD0
S3150002471024700340CDCCCCCCF88FFF1FE88FFF1F4F
S31500024720E03500202DE9F8431B491C4A1C4F1D4C5D
S315000247300223002012F0CCFC1B4B1C495E68D7E911
S3150002474000230B6806FB0262A4FB0334A2EB94145B
S31500024750002540F2213001E001381AD0134BDFF870
S3150002476044E0D7E90089196818F10108AEFB01E1B6
S3150002477049F10009A8FB06238909521A06FB0933E7
S3150002478063F10003121B63EB0503002B08BF0A2A21
S31500024790E2D3BDE8F88300BF20D803001090FF1FC4
S315000247A0E0350020CDCCCCCCE48DFF1F2470034035
S315000247B000F080B8084691B205F0C0BDF8B51448BD
S315000247C0032111F0C7FB134B1B7803B9F8BD124A3C
S315000247D01249134B4868DFF854E0124F124ED2E9E1
S315000247E0004519680134AEFB01E145F10005A4FB61
S315000247F000238909521A00FB053363F100030121E4
S31500024800C7E900233170BDE8F84005F06BBD00BF73
S3150002481000D0044047380020E0350020E48DFF1F19
S3150002482024700340503800204A380020CDCCCCCC2E
S31500024830014B00221A8070470684FF1F034A138821
S31500024840142B9CBF01331380704700BF0684FF1FE1
S31500024850034B1869C0F3C00080F00100704700BF27
S31500024860C0F00F40064B1B691B0701D4012070479D
S31500024870044B188814288CBF00200120704700BF03
S31500024880C0F00F400684FF1F08B5012203480C2121
S3150002489011F068FB024B01221A7008BD40F00F406E
S315000248A04738002002480C21002211F05BBB00BFF2
S315000248B040F00F40024B1869C0F3C010704700BFAA
S315000248C000F10F4002481021002211F04BBB00BF3D
S315000248D080F00F4002481021012211F043BB00BFB5
S315000248E080F00F4008B50A49582011F01DFB09480F
S315000248F00C21002211F036FB00214022064817F057
S31500024900B0F90649064A00230B709370D37008BDAE
S3150002491058D8030040F00F403C90FF1F3890FF1F0D
S315000249204038002008B50C49592011F0FDFA0B4910
S3150002493000223F2013F052F83F2013F063F813F0E1
S3150002494085F8002002460649FDF7F0FB13F072F8DF
S31500024950BDE80840FFF726B98C85FF1FBD47020058
S31500024960B547020010B5144C0A2001F0E1FD01F032
S31500024970EDFD22781149531CDBB21F2B21F81200E0
S31500024980237017D9002222708B1E01F13E0033F8E4
S31500024990021F83420A44FAD1C2F34F12C2EB02103B
S315000249A0074B084902EB800283FB0203D217C2EBD4
S315000249B0A3020A8010BD00BF3890FF1F3C90FF1F64
S315000249C095204F0958380020244B1B7810B40BB39E
S315000249D0234B1B6913F0010330D122482249234A93
S315000249E0002303800B701371214B1B69C3F3002351
S315000249F09BB920490A88013292B2042A2AD91B4A53
S31500024A00194C50780B8001231370637000B99370B0
S31500024A10012353705DF8044B7047144A154C5178C4
S31500024A201148002323804370137001294FF00003BD
S31500024A3008BFD17053705DF8044B704709490A8864
S31500024A40013292B2042A0A80CED90749074A0B706C
S31500024A501371C9E70A805DF8044B70474738002096
S31500024A6000F00F403A90FF1F4838002040380020DF
S31500024A7080F00F407C90FF1F034B5878A0F1010095
S31500024A80B0FA80F04009704748380020034B187886
S31500024A90A0F10100B0FA80F04009704748380020C2
S31500024AA038B520F0030505F16C43B3F5805F15D2E6
S31500024AB00C682B68A34211D006F0B6FD084B1B7892
S31500024AC01A06FBD52C60064B5B78DB07FBD506F096
S31500024AD0A1FD2868201A18BF012038BD012038BD63
S31500024AE0000002402DE9F04186B0002302930393B1
S31500024AF004938DF807300593FFF73EF818F02CFB68
S31500024B00614B1B781D06FBD5604B1A685E4B5B78C2
S31500024B10DC07FBD55E4B02929A425E485CD00021CE
S31500024B2068225D4C054617F09CF804F16C41A1F52C
S31500024B30007120462944FFF7B3FF584B04349C42C8
S31500024B40F3D106A9524B41F8103D5048544DFFF798
S31500024B50A7FF03A95348FFF7A3FF04A95248FFF78B
S31500024B609FFF0DF107015148FFF79AFF05A950482B
S31500024B70FFF796FF05A94F48FFF792FF05F5027763
S31500024B8002E01435BD4220D0EB68002BF9D0AA888A
S31500024B90A968002AF5D0032A1CD9900716BF9208E5
S31500024BA09608561C013EB6B201361C4603EB860633
S31500024BB0C3EB010808EB040021460434FFF770FF3B
S31500024BC0B442F7D11435BD42DED1FEF7D9FF06B0A5
S31500024BD0BDE8F0810126E5E72F49682217F036F88D
S31500024BE0294B1B781E06FBD52E4B1A68264B5B7883
S31500024BF0DD07FBD506A9013241F80C2D2948FFF73E
S31500024C004FFF2D4B28489B6806A941F8083DFFF740
S31500024C1047FF1D4B1B781C06FBD5264B1A681A4B01
S31500024C205B78D807FBD5B2F15A3FCED11C4C21484E
S31500024C3005A9FFF735FF04F5F07602E01434B44215
S31500024C40C3D0626B002AF9D094F83830012BF5D123
S31500024C50A18D206B0029F1D0032903D98B0889077E
S31500024C6018BF0133013B9BB20133154602EB8307A2
S31500024C70C2EB000808EB050029460435FFF710FFD2
S31500024C80BD42F7D1DAE700BF000002400006001479
S31500024C90AA55AA555C3800200002001468020014C6
S31500024CA024E4030004060014080600140C0600148B
S31500024CB0100600141406001400F00740C2B1032ABD
S31500024CC0F8B50FD80125013DADB201350F460646AE
S31500024CD0AD000024301939190434FFF7E1FEAC4265
S31500024CE0F8D1F8BD930716BF92089508551CEAE756
S31500024CF0704700BF044B1B781A06FBD50078024B9F
S31500024D005B78DB07FBD570470000024000B583B035
S31500024D10022300930449054A054B064814F03EFE59
S31500024D2003B05DF804FB00BFF4FF0300F8FF0300C5
S31500024D30ECFF03003845002008B501210023054891
S31500024D40054A15F003F800200146BDE8084015F0B3
S31500024D500BB800BF188FFF1FD0350020014BD3E9D7
S31500024D60000170473893FF1F024B012283F82B2064
S31500024D70704700BF4493FF1F014B987A704700BFEC
S31500024D80E090FF1F124B93F8D220032A1DD093F80E
S31500024D90D320032A19D093F8D420032A15D093F8E6
S31500024DA0D520032A11D0B3F8D61040F2FF729142F1
S31500024DB00BD0B3F8D81040F2FF32914205D093F8E7
S31500024DC0DC00033818BF012070470020704700BF7F
S31500024DD0E090FF1F2DE9F04F994D9A4C28782378E1
S31500024DE083428DB003D00EF0B3F82B782370687827
S31500024DF06378934F934E834203D00EF0C5F87B78C7
S31500024E007370A878A3788E4F8E4E834203D00EF02D
S31500024E10ADF8BB78B370E878E378894F894E834260
S31500024E2003D00EF087F8FB78F37028792379844F44
S31500024E30844E834203D00EF0CBF83B793371687906
S31500024E4063797F4F7F4E834203D00EF04BF87B7916
S31500024E507371A879A3797A4F7A4E834203D00EF002
S31500024E60A1F8BB79B371E879E379754F754E834240
S31500024E7003D00EF04BF8FB79F371287A237A704F40
S31500024E80704E834203D00EF02BF93B7A3372687A66
S31500024E90637A6B4F6B4E834203D00EF009F97B7A2D
S31500024EA07372A87AA37A664F664E834203D00EF0D7
S31500024EB0A5F8BB7AB372E87AE37A614F614E834210
S31500024EC003D00EF023F9FB7AF372287B237B5C4F27
S31500024ED05C4E834203D00EF0BDF83B7B3373687B96
S31500024EE0637B574F574E834203D00EF09BF87B7B72
S31500024EF07373A87BA37B524F524E834203D00EF0AC
S31500024F00BFF8BB7BB373E87BE37B4D4F4D4E8342C9
S31500024F1003D00EF011F9FB7BF373288A238A484FDC
S31500024F20484E984203D00EF01FF93B8A3382A87C82
S31500024F30A37C434F434E834203D00EF0EDF9BB7C74
S31500024F40B374E87CE37C3E4F3E4E834203D00EF0C0
S31500024F502FF9FB7CF374287D237D394F394E83422A
S31500024F6003D00EF097F93B7D3375687D637D344F30
S31500024F70344E834203D00EF049F97B7D7375A87DCA
S31500024F80A37D2F4F2F4E834203D00EF0F3F9BB7D44
S31500024F90B375E87DE37D2A4F2A4E834203D00EF095
S31500024FA0A5F9FB7DF375287E237E254F254E834288
S31500024FB003D00EF0E9F83B7E3376687E637E204F9F
S31500024FC0204E834203D00EF00BF97B7E7376A87EC9
S31500024FD0A37E1B4F1B4E834203D00EF043F9BB7ECA
S31500024FE0B376E87EE37E164F164E834203D00EF06A
S31500024FF0D5F9FB7EF376287F237F114F114E83422C
S3150002500003D00EF019F93B7F3377687F637F0C4F2D
S315000250100C4E834203D00EF095F97B7F7377A87FFF
S31500025020A37F074F074E834203D00EF047F9BB7F9B
S31500025030B377054B187860BBE37FE87723BB05E0BF
S315000250404493FF1F8C90FF1FD84100200E23089324
S315000250500D2307930C2306930B2305930A2304932C
S31500025060092303930823029307234FF00F0C01939E
S315000250704FF0060B4FF0050A4FF004094FF00308F4
S315000250800227012600222BE00EF024FB32200CF030
S3150002509091FAE87FE37FBF4FBF4E8342D6D00EF030
S315000250A019FBFB7FF3770F2308930E2307930D2338
S315000250B006930C2305930B2304930A2303930923D4
S315000250C0029308234FF0100C01934FF0070B4FF099
S315000250D0060A4FF005094FF00408032702260122AB
S315000250E095F8200094F820E0AA4BAB49CDF82CC0E5
S315000250F086450A93099121D00EF036FA0A9B099940
S3150002510093F82020029B81F8202032463E464746ED
S31500025110C846D146DA46DDF804B00193039B0293F2
S31500025120049B0393059B0493069B0593079B069397
S31500025130DDF82CC0089B0793CDF820C095F8210016
S3150002514094F821E0DFF84CC29349CDF828C0864591
S3150002515009911ED00EF094FADDF828C00999029B37
S315000251609CF8212081F8212032463E464746C84611
S31500025170D146DA46DDF804B00193039B0293049B01
S315000251800393059B0493069B0593079B0693089B33
S31500025190079395F8220094F822E0DFF8F8C17E49D9
S315000251A0CDF824C0864508911CD00EF00BF9DDF827
S315000251B024C00899029B9CF8222081F822203246BC
S315000251C03E464746C846D146DA46DDF804B0019364
S315000251D0039B0293049B0393059B0493069B0593EF
S315000251E0079B069395F8230094F823E0DFF8A4C101
S315000251F06949CDF820C0864507911AD00EF0F8F815
S31500025200DDF820C00799029B9CF8232081F8232011
S3150002521032463E464746C846D146DA46DDF804B02F
S315000252200193039B0293049B0393059B0493069BA2
S31500025230059395F8240094F824E0DFF858C15649FE
S31500025240CDF81CC08645069118D00EF019F9DDF886
S315000252501CC00699029B9CF8242081F82420324621
S315000252603E464746C846D146DA46DDF804B00193C3
S31500025270039B0293049B0393059B049395F82500D5
S3150002528094F825E0DFF80CC14349CDF818C08645ED
S31500025290059116D00EF0E0F9DDF818C00599029BCB
S315000252A09CF8252081F8252032463E464746C846C8
S315000252B0D146DA46DDF804B00193039B0293049BC0
S315000252C0039395F8260094F826E0DFF8C8C0324921
S315000252D0CDF814C08645049114D00EF001F9DDF81C
S315000252E014C00499029B9CF8262081F82620324697
S315000252F03E464746C846D146DA46DDF804B0019333
S31500025300039B029395F8270094F827E0DFF884C000
S315000253102149CDF810C08645039112D00EF0C8F887
S31500025320DDF810C003999CF82720029B81F82720FC
S3150002533032463E464746C846D146DA46DDF804B00E
S31500025340019395F8280094F828E0DFF848C012493E
S31500025350CDF80CC08645029110D00EF035F9DDF875
S315000253600CC002999CF8282081F8282032463E4635
S315000253704746C846D146DA46DDF804B095F8290014
S3150002538094F829E00349044B02918645019313D010
S3150002539004E000BF4493FF1F8C90FF1F0EF040F8FD
S315000253A00299019B91F8292083F8292032463E462C
S315000253B04746C846D146DA4695F82A0094F82A1096
S315000253C0504B01938142DFF840B10BD00EF09EF8AC
S315000253D0019B93F82A308BF82A3032463E464746DE
S315000253E0C846D14695F82B0094F82B30DFF814B155
S315000253F0DFF814A1834209D00EF016F99BF82B3080
S315000254008AF82B3032463E464746C84695F82C0067
S3150002541094F82C30DFF8ECA0DFF8EC90834208D049
S315000254200EF08AF89AF82C3089F82C3032463E462D
S31500025430474695F82D0094F82D30DFF8C890DFF82E
S31500025440C880834207D00EF003F899F82D3088F809
S315000254502D3032463E4695F82E0094F82E30DFF86F
S31500025460A480294F834206D00EF096F898F82E3083
S3150002547087F82E30324695F82F0094F82F30214FB8
S31500025480214E83422AD00EF0B7F897F8300096F8EC
S31500025490303097F82F2086F82F20834205D00EF061
S315000254A003F995F8303084F83030184BDA78F2B1D7
S315000254B0154E174C06F1420528462146082216F0DB
S315000254C0B3FB40B120460EF01BF922686368C6F8AA
S315000254D04220C6F846300DB0BDE8F08F97F830008E
S315000254E096F830308342DAD1002AE1D0DDE7094A64
S315000254F01278012ADCD19B78002BD9D132200CF00C
S3150002550059F8D5E74493FF1F8C90FF1FD03800202F
